{
  "contractName": "CrowdSale",
  "abi": [
    {
      "inputs": [
        {
          "internalType": "address payable",
          "name": "_beneficiary",
          "type": "address"
        },
        {
          "internalType": "uint256",
          "name": "_fundingGoal",
          "type": "uint256"
        },
        {
          "internalType": "uint256",
          "name": "_duration",
          "type": "uint256"
        },
        {
          "internalType": "uint256",
          "name": "_price",
          "type": "uint256"
        },
        {
          "internalType": "address",
          "name": "_reward",
          "type": "address"
        }
      ],
      "stateMutability": "nonpayable",
      "type": "constructor"
    },
    {
      "anonymous": false,
      "inputs": [
        {
          "indexed": false,
          "internalType": "address",
          "name": "backer",
          "type": "address"
        },
        {
          "indexed": false,
          "internalType": "uint256",
          "name": "amount",
          "type": "uint256"
        },
        {
          "indexed": false,
          "internalType": "bool",
          "name": "isContribution",
          "type": "bool"
        }
      ],
      "name": "FundTransfer",
      "type": "event"
    },
    {
      "anonymous": false,
      "inputs": [
        {
          "indexed": false,
          "internalType": "uint256",
          "name": "amountRaised",
          "type": "uint256"
        }
      ],
      "name": "GoalReached",
      "type": "event"
    },
    {
      "anonymous": false,
      "inputs": [
        {
          "indexed": true,
          "internalType": "address",
          "name": "previousOwner",
          "type": "address"
        },
        {
          "indexed": true,
          "internalType": "address",
          "name": "newOwner",
          "type": "address"
        }
      ],
      "name": "OwnershipTransferred",
      "type": "event"
    },
    {
      "anonymous": false,
      "inputs": [
        {
          "indexed": false,
          "internalType": "address",
          "name": "investor",
          "type": "address"
        },
        {
          "indexed": false,
          "internalType": "uint256",
          "name": "value",
          "type": "uint256"
        }
      ],
      "name": "Refund",
      "type": "event"
    },
    {
      "anonymous": false,
      "inputs": [
        {
          "indexed": false,
          "internalType": "address",
          "name": "investor",
          "type": "address"
        },
        {
          "indexed": false,
          "internalType": "uint256",
          "name": "amount",
          "type": "uint256"
        }
      ],
      "name": "TokenRewardSent",
      "type": "event"
    },
    {
      "inputs": [],
      "name": "amountRaised",
      "outputs": [
        {
          "internalType": "uint256",
          "name": "",
          "type": "uint256"
        }
      ],
      "stateMutability": "view",
      "type": "function",
      "constant": true
    },
    {
      "inputs": [],
      "name": "beneficiary",
      "outputs": [
        {
          "internalType": "address payable",
          "name": "",
          "type": "address"
        }
      ],
      "stateMutability": "view",
      "type": "function",
      "constant": true
    },
    {
      "inputs": [],
      "name": "deadline",
      "outputs": [
        {
          "internalType": "uint256",
          "name": "",
          "type": "uint256"
        }
      ],
      "stateMutability": "view",
      "type": "function",
      "constant": true
    },
    {
      "inputs": [
        {
          "internalType": "uint256",
          "name": "",
          "type": "uint256"
        }
      ],
      "name": "funders",
      "outputs": [
        {
          "internalType": "address payable",
          "name": "addr",
          "type": "address"
        },
        {
          "internalType": "uint256",
          "name": "amount",
          "type": "uint256"
        }
      ],
      "stateMutability": "view",
      "type": "function",
      "constant": true
    },
    {
      "inputs": [],
      "name": "fundingGoal",
      "outputs": [
        {
          "internalType": "uint256",
          "name": "",
          "type": "uint256"
        }
      ],
      "stateMutability": "view",
      "type": "function",
      "constant": true
    },
    {
      "inputs": [],
      "name": "owner",
      "outputs": [
        {
          "internalType": "address",
          "name": "",
          "type": "address"
        }
      ],
      "stateMutability": "view",
      "type": "function",
      "constant": true
    },
    {
      "inputs": [],
      "name": "price",
      "outputs": [
        {
          "internalType": "uint256",
          "name": "",
          "type": "uint256"
        }
      ],
      "stateMutability": "view",
      "type": "function",
      "constant": true
    },
    {
      "inputs": [],
      "name": "renounceOwnership",
      "outputs": [],
      "stateMutability": "nonpayable",
      "type": "function"
    },
    {
      "inputs": [],
      "name": "tokenReward",
      "outputs": [
        {
          "internalType": "contract HutToken",
          "name": "",
          "type": "address"
        }
      ],
      "stateMutability": "view",
      "type": "function",
      "constant": true
    },
    {
      "inputs": [
        {
          "internalType": "address",
          "name": "newOwner",
          "type": "address"
        }
      ],
      "name": "transferOwnership",
      "outputs": [],
      "stateMutability": "nonpayable",
      "type": "function"
    },
    {
      "stateMutability": "payable",
      "type": "receive",
      "payable": true
    },
    {
      "inputs": [],
      "name": "checkBlockTime",
      "outputs": [
        {
          "internalType": "uint256",
          "name": "",
          "type": "uint256"
        }
      ],
      "stateMutability": "view",
      "type": "function",
      "constant": true
    },
    {
      "inputs": [],
      "name": "getFundingGoal",
      "outputs": [
        {
          "internalType": "uint256",
          "name": "",
          "type": "uint256"
        }
      ],
      "stateMutability": "view",
      "type": "function",
      "constant": true
    },
    {
      "inputs": [],
      "name": "getNowAmountRaised",
      "outputs": [
        {
          "internalType": "uint256",
          "name": "",
          "type": "uint256"
        }
      ],
      "stateMutability": "view",
      "type": "function",
      "constant": true
    },
    {
      "inputs": [],
      "name": "getDeadLine",
      "outputs": [
        {
          "internalType": "uint256",
          "name": "",
          "type": "uint256"
        }
      ],
      "stateMutability": "view",
      "type": "function",
      "constant": true
    },
    {
      "inputs": [],
      "name": "getHutToken",
      "outputs": [
        {
          "internalType": "uint256",
          "name": "tokenAmount",
          "type": "uint256"
        }
      ],
      "stateMutability": "view",
      "type": "function",
      "constant": true
    },
    {
      "inputs": [],
      "name": "checkGoalReached",
      "outputs": [],
      "stateMutability": "nonpayable",
      "type": "function"
    },
    {
      "inputs": [],
      "name": "getFundersCount",
      "outputs": [
        {
          "internalType": "uint256",
          "name": "",
          "type": "uint256"
        }
      ],
      "stateMutability": "view",
      "type": "function",
      "constant": true
    }
  ],
  "bytecode": "0x60806040523480156200001157600080fd5b5060405162001e1438038062001e1483398181016040528101906200003791906200048a565b60016000819055506200005f62000053620002d260201b60201c565b620002da60201b60201c565b600073ffffffffffffffffffffffffffffffffffffffff168573ffffffffffffffffffffffffffffffffffffffff1603620000d1576040517f08c379a0000000000000000000000000000000000000000000000000000000008152600401620000c89062000573565b60405180910390fd5b6000841162000117576040517f08c379a00000000000000000000000000000000000000000000000000000000081526004016200010e90620005e5565b60405180910390fd5b600083116200015d576040517f08c379a0000000000000000000000000000000000000000000000000000000008152600401620001549062000657565b60405180910390fd5b60008211620001a3576040517f08c379a00000000000000000000000000000000000000000000000000000000081526004016200019a90620006c9565b60405180910390fd5b600073ffffffffffffffffffffffffffffffffffffffff168173ffffffffffffffffffffffffffffffffffffffff160362000215576040517f08c379a00000000000000000000000000000000000000000000000000000000081526004016200020c906200073b565b60405180910390fd5b84600260006101000a81548173ffffffffffffffffffffffffffffffffffffffff021916908373ffffffffffffffffffffffffffffffffffffffff16021790555083600381905550603c836200026c91906200078c565b42620002799190620007d7565b6005819055508160068190555080600760006101000a81548173ffffffffffffffffffffffffffffffffffffffff021916908373ffffffffffffffffffffffffffffffffffffffff160217905550505050505062000812565b600033905090565b6000600160009054906101000a900473ffffffffffffffffffffffffffffffffffffffff16905081600160006101000a81548173ffffffffffffffffffffffffffffffffffffffff021916908373ffffffffffffffffffffffffffffffffffffffff1602179055508173ffffffffffffffffffffffffffffffffffffffff168173ffffffffffffffffffffffffffffffffffffffff167f8be0079c531659141344cd1fd0a4f28419497f9722a3daafe3b4186f6b6457e060405160405180910390a35050565b600080fd5b600073ffffffffffffffffffffffffffffffffffffffff82169050919050565b6000620003d282620003a5565b9050919050565b620003e481620003c5565b8114620003f057600080fd5b50565b6000815190506200040481620003d9565b92915050565b6000819050919050565b6200041f816200040a565b81146200042b57600080fd5b50565b6000815190506200043f8162000414565b92915050565b60006200045282620003a5565b9050919050565b620004648162000445565b81146200047057600080fd5b50565b600081519050620004848162000459565b92915050565b600080600080600060a08688031215620004a957620004a8620003a0565b5b6000620004b988828901620003f3565b9550506020620004cc888289016200042e565b9450506040620004df888289016200042e565b9350506060620004f2888289016200042e565b9250506080620005058882890162000473565b9150509295509295909350565b600082825260208201905092915050565b7f496e76616c69642062656e656669636961727920616464726573730000000000600082015250565b60006200055b601b8362000512565b9150620005688262000523565b602082019050919050565b600060208201905081810360008301526200058e816200054c565b9050919050565b7f496e76616c69642066756e64696e6720676f616c000000000000000000000000600082015250565b6000620005cd60148362000512565b9150620005da8262000595565b602082019050919050565b600060208201905081810360008301526200060081620005be565b9050919050565b7f496e76616c6964206475726174696f6e00000000000000000000000000000000600082015250565b60006200063f60108362000512565b91506200064c8262000607565b602082019050919050565b60006020820190508181036000830152620006728162000630565b9050919050565b7f496e76616c696420707269636500000000000000000000000000000000000000600082015250565b6000620006b1600d8362000512565b9150620006be8262000679565b602082019050919050565b60006020820190508181036000830152620006e481620006a2565b9050919050565b7f496e76616c696420746f6b656e20726577617264206164647265737300000000600082015250565b600062000723601c8362000512565b91506200073082620006eb565b602082019050919050565b60006020820190508181036000830152620007568162000714565b9050919050565b7f4e487b7100000000000000000000000000000000000000000000000000000000600052601160045260246000fd5b600062000799826200040a565b9150620007a6836200040a565b9250828202620007b6816200040a565b91508282048414831517620007d057620007cf6200075d565b5b5092915050565b6000620007e4826200040a565b9150620007f1836200040a565b92508282019050808211156200080c576200080b6200075d565b5b92915050565b6115f280620008226000396000f3fe6080604052600436106101025760003560e01c80637a3a0e8411610095578063a035b1fe11610064578063a035b1fe146104b9578063b85090f3146104e4578063dc0d3dff1461050f578063f2fde38b1461054d578063fcbf5e0414610576576102d8565b80637a3a0e841461040d5780637b3e5e7b146104385780638da5cb5b14610463578063920b3a7e1461048e576102d8565b806338af3eed116100d157806338af3eed1461037557806361d0acbb146103a05780636e66f6e9146103cb578063715018a6146103f6576102d8565b806301cb3b20146102dd57806329dcb0cf146102f45780632a2e2b641461031f5780633450e1001461034a576102d8565b366102d85761010f6105a1565b600073ffffffffffffffffffffffffffffffffffffffff163373ffffffffffffffffffffffffffffffffffffffff160361017e576040517f08c379a000000000000000000000000000000000000000000000000000000000815260040161017590610e75565b60405180910390fd5b600034116101c1576040517f08c379a00000000000000000000000000000000000000000000000000000000081526004016101b890610ee1565b60405180910390fd5b600554421115610206576040517f08c379a00000000000000000000000000000000000000000000000000000000081526004016101fd90610f4d565b60405180910390fd5b6000349050600860405180604001604052803373ffffffffffffffffffffffffffffffffffffffff16815260200183815250908060018154018082558091505060019003906000526020600020906002020160009091909190915060008201518160000160006101000a81548173ffffffffffffffffffffffffffffffffffffffff021916908373ffffffffffffffffffffffffffffffffffffffff16021790555060208201518160010155505080600460008282546102c69190610fa6565b92505081905550506102d66105f0565b005b600080fd5b3480156102e957600080fd5b506102f26105fa565b005b34801561030057600080fd5b50610309610a7d565b6040516103169190610fe9565b60405180910390f35b34801561032b57600080fd5b50610334610a83565b6040516103419190610fe9565b60405180910390f35b34801561035657600080fd5b5061035f610a8d565b60405161036c9190610fe9565b60405180910390f35b34801561038157600080fd5b5061038a610a95565b6040516103979190611045565b60405180910390f35b3480156103ac57600080fd5b506103b5610abb565b6040516103c29190610fe9565b60405180910390f35b3480156103d757600080fd5b506103e0610ac5565b6040516103ed91906110bf565b60405180910390f35b34801561040257600080fd5b5061040b610aeb565b005b34801561041957600080fd5b50610422610aff565b60405161042f9190610fe9565b60405180910390f35b34801561044457600080fd5b5061044d610b05565b60405161045a9190610fe9565b60405180910390f35b34801561046f57600080fd5b50610478610b0b565b60405161048591906110fb565b60405180910390f35b34801561049a57600080fd5b506104a3610b35565b6040516104b09190610fe9565b60405180910390f35b3480156104c557600080fd5b506104ce610b42565b6040516104db9190610fe9565b60405180910390f35b3480156104f057600080fd5b506104f9610b48565b6040516105069190610fe9565b60405180910390f35b34801561051b57600080fd5b5061053660048036038101906105319190611147565b610b52565b604051610544929190611174565b60405180910390f35b34801561055957600080fd5b50610574600480360381019061056f91906111c9565b610ba6565b005b34801561058257600080fd5b5061058b610c29565b6040516105989190610fe9565b60405180910390f35b6002600054036105e6576040517f08c379a00000000000000000000000000000000000000000000000000000000081526004016105dd90611242565b60405180910390fd5b6002600081905550565b6001600081905550565b610602610ccc565b600554421015610647576040517f08c379a000000000000000000000000000000000000000000000000000000000815260040161063e906112ae565b60405180910390fd5b600354600454106108e957600060045490506000600481905550600260009054906101000a900473ffffffffffffffffffffffffffffffffffffffff1673ffffffffffffffffffffffffffffffffffffffff166108fc829081150290604051600060405180830381858888f193505050501580156106c9573d6000803e3d6000fd5b507fe842aea7a5f1b01049d752008c53c52890b1a6daf660cf39e8eec506112bbdf6600260009054906101000a900473ffffffffffffffffffffffffffffffffffffffff168260006040516107209392919061130a565b60405180910390a17ffbfd8ab7c24300fa9888cd721c8565a7da56759384781283684dcf7c7c4a846b816040516107579190610fe9565b60405180910390a160005b6008805490508110156108e25760006008828154811061078557610784611341565b5b90600052602060002090600202019050600060065482600101546107a99190611370565b9050600760009054906101000a900473ffffffffffffffffffffffffffffffffffffffff1673ffffffffffffffffffffffffffffffffffffffff1663a9059cbb8360000160009054906101000a900473ffffffffffffffffffffffffffffffffffffffff16836040518363ffffffff1660e01b815260040161082c9291906113b2565b6020604051808303816000875af115801561084b573d6000803e3d6000fd5b505050506040513d601f19601f8201168201806040525081019061086f9190611407565b507f9d94103688f8c2064c16c6c6734849e5883e5ec4f2a75c27e9670ff65775c7008260000160009054906101000a900473ffffffffffffffffffffffffffffffffffffffff16826040516108c59291906113b2565b60405180910390a1505080806108da90611434565b915050610762565b5050610a7b565b60005b600880549050811015610a795760006008828154811061090f5761090e611341565b5b90600052602060002090600202019050600081600101549050600082600101819055506000811115610a64578160000160009054906101000a900473ffffffffffffffffffffffffffffffffffffffff1673ffffffffffffffffffffffffffffffffffffffff166108fc829081150290604051600060405180830381858888f193505050501580156109a5573d6000803e3d6000fd5b507fbb28353e4598c3b9199101a66e0989549b659a59a54d2c27fbb183f1932c8e6d8260000160009054906101000a900473ffffffffffffffffffffffffffffffffffffffff16826040516109fb9291906113b2565b60405180910390a17fe842aea7a5f1b01049d752008c53c52890b1a6daf660cf39e8eec506112bbdf68260000160009054906101000a900473ffffffffffffffffffffffffffffffffffffffff16826000604051610a5b9392919061130a565b60405180910390a15b50508080610a7190611434565b9150506108ec565b505b565b60055481565b6000600454905090565b600042905090565b600260009054906101000a900473ffffffffffffffffffffffffffffffffffffffff1681565b6000600554905090565b600760009054906101000a900473ffffffffffffffffffffffffffffffffffffffff1681565b610af3610ccc565b610afd6000610d4a565b565b60035481565b60045481565b6000600160009054906101000a900473ffffffffffffffffffffffffffffffffffffffff16905090565b6000600880549050905090565b60065481565b6000600354905090565b60088181548110610b6257600080fd5b90600052602060002090600202016000915090508060000160009054906101000a900473ffffffffffffffffffffffffffffffffffffffff16908060010154905082565b610bae610ccc565b600073ffffffffffffffffffffffffffffffffffffffff168173ffffffffffffffffffffffffffffffffffffffff1603610c1d576040517f08c379a0000000000000000000000000000000000000000000000000000000008152600401610c14906114ee565b60405180910390fd5b610c2681610d4a565b50565b6000600760009054906101000a900473ffffffffffffffffffffffffffffffffffffffff1673ffffffffffffffffffffffffffffffffffffffff166370a08231306040518263ffffffff1660e01b8152600401610c8691906110fb565b602060405180830381865afa158015610ca3573d6000803e3d6000fd5b505050506040513d601f19601f82011682018060405250810190610cc79190611523565b905090565b610cd4610e10565b73ffffffffffffffffffffffffffffffffffffffff16610cf2610b0b565b73ffffffffffffffffffffffffffffffffffffffff1614610d48576040517f08c379a0000000000000000000000000000000000000000000000000000000008152600401610d3f9061159c565b60405180910390fd5b565b6000600160009054906101000a900473ffffffffffffffffffffffffffffffffffffffff16905081600160006101000a81548173ffffffffffffffffffffffffffffffffffffffff021916908373ffffffffffffffffffffffffffffffffffffffff1602179055508173ffffffffffffffffffffffffffffffffffffffff168173ffffffffffffffffffffffffffffffffffffffff167f8be0079c531659141344cd1fd0a4f28419497f9722a3daafe3b4186f6b6457e060405160405180910390a35050565b600033905090565b600082825260208201905092915050565b7f496e76616c69642073656e646572206164647265737300000000000000000000600082015250565b6000610e5f601683610e18565b9150610e6a82610e29565b602082019050919050565b60006020820190508181036000830152610e8e81610e52565b9050919050565b7f496e76616c69642076616c756500000000000000000000000000000000000000600082015250565b6000610ecb600d83610e18565b9150610ed682610e95565b602082019050919050565b60006020820190508181036000830152610efa81610ebe565b9050919050565b7f616c726561647920657870697265640000000000000000000000000000000000600082015250565b6000610f37600f83610e18565b9150610f4282610f01565b602082019050919050565b60006020820190508181036000830152610f6681610f2a565b9050919050565b6000819050919050565b7f4e487b7100000000000000000000000000000000000000000000000000000000600052601160045260246000fd5b6000610fb182610f6d565b9150610fbc83610f6d565b9250828201905080821115610fd457610fd3610f77565b5b92915050565b610fe381610f6d565b82525050565b6000602082019050610ffe6000830184610fda565b92915050565b600073ffffffffffffffffffffffffffffffffffffffff82169050919050565b600061102f82611004565b9050919050565b61103f81611024565b82525050565b600060208201905061105a6000830184611036565b92915050565b6000819050919050565b600061108561108061107b84611004565b611060565b611004565b9050919050565b60006110978261106a565b9050919050565b60006110a98261108c565b9050919050565b6110b98161109e565b82525050565b60006020820190506110d460008301846110b0565b92915050565b60006110e582611004565b9050919050565b6110f5816110da565b82525050565b600060208201905061111060008301846110ec565b92915050565b600080fd5b61112481610f6d565b811461112f57600080fd5b50565b6000813590506111418161111b565b92915050565b60006020828403121561115d5761115c611116565b5b600061116b84828501611132565b91505092915050565b60006040820190506111896000830185611036565b6111966020830184610fda565b9392505050565b6111a6816110da565b81146111b157600080fd5b50565b6000813590506111c38161119d565b92915050565b6000602082840312156111df576111de611116565b5b60006111ed848285016111b4565b91505092915050565b7f5265656e7472616e637947756172643a207265656e7472616e742063616c6c00600082015250565b600061122c601f83610e18565b9150611237826111f6565b602082019050919050565b6000602082019050818103600083015261125b8161121f565b9050919050565b7f43726f776473616c65206e6f742079657420656e646564000000000000000000600082015250565b6000611298601783610e18565b91506112a382611262565b602082019050919050565b600060208201905081810360008301526112c78161128b565b9050919050565b60006112d98261108c565b9050919050565b6112e9816112ce565b82525050565b60008115159050919050565b611304816112ef565b82525050565b600060608201905061131f60008301866112e0565b61132c6020830185610fda565b61133960408301846112fb565b949350505050565b7f4e487b7100000000000000000000000000000000000000000000000000000000600052603260045260246000fd5b600061137b82610f6d565b915061138683610f6d565b925082820261139481610f6d565b915082820484148315176113ab576113aa610f77565b5b5092915050565b60006040820190506113c760008301856112e0565b6113d46020830184610fda565b9392505050565b6113e4816112ef565b81146113ef57600080fd5b50565b600081519050611401816113db565b92915050565b60006020828403121561141d5761141c611116565b5b600061142b848285016113f2565b91505092915050565b600061143f82610f6d565b91507fffffffffffffffffffffffffffffffffffffffffffffffffffffffffffffffff820361147157611470610f77565b5b600182019050919050565b7f4f776e61626c653a206e6577206f776e657220697320746865207a65726f206160008201527f6464726573730000000000000000000000000000000000000000000000000000602082015250565b60006114d8602683610e18565b91506114e38261147c565b604082019050919050565b60006020820190508181036000830152611507816114cb565b9050919050565b60008151905061151d8161111b565b92915050565b60006020828403121561153957611538611116565b5b60006115478482850161150e565b91505092915050565b7f4f776e61626c653a2063616c6c6572206973206e6f7420746865206f776e6572600082015250565b6000611586602083610e18565b915061159182611550565b602082019050919050565b600060208201905081810360008301526115b581611579565b905091905056fea26469706673582212201a944a2436cabb3e582f93b810416169f041496c3be17dd0eddfcc53ad3fe1b164736f6c63430008130033",
  "immutableReferences": {},
  "source": "//SPDX-License-Identifier: MIT\r\npragma solidity ^0.8.19;\r\nimport '../contracts/HutToken.sol';\r\nimport '../node_modules/@openzeppelin/contracts/access/Ownable.sol';\r\nimport '../node_modules/@openzeppelin/contracts/security/ReentrancyGuard.sol';\r\n\r\ncontract CrowdSale is ReentrancyGuard, Ownable {\r\n    address payable public beneficiary;\r\n    uint public fundingGoal;\r\n    uint public amountRaised;\r\n    uint public deadline;\r\n    uint public price;\r\n    HutToken public tokenReward;\r\n\r\n    event FundTransfer(address backer, uint amount, bool isContribution);\r\n    event GoalReached(uint amountRaised);\r\n    event Refund(address investor, uint value);\r\n    event TokenRewardSent(address investor, uint amount);\r\n\r\n    struct Funder {\r\n        address payable addr;\r\n        uint amount;\r\n    }\r\n\r\n    Funder[] public funders;\r\n\r\n    constructor(address payable _beneficiary, uint _fundingGoal, uint _duration, uint _price, address _reward) {\r\n        require(_beneficiary != address(0), 'Invalid beneficiary address');\r\n        require(_fundingGoal > 0, 'Invalid funding goal');\r\n        require(_duration > 0, 'Invalid duration');\r\n        require(_price > 0, 'Invalid price');\r\n        require(_reward != address(0), 'Invalid token reward address');\r\n\r\n        beneficiary = _beneficiary;\r\n        fundingGoal = _fundingGoal;\r\n        deadline = block.timestamp + (_duration * 1 minutes);\r\n        price = _price;\r\n        tokenReward = HutToken(_reward);\r\n    }\r\n\r\n    receive() external payable nonReentrant {\r\n        require(msg.sender != address(0), 'Invalid sender address');\r\n        require(msg.value > 0, 'Invalid value');\r\n        require(block.timestamp <= deadline, 'already expired');\r\n        uint amount = msg.value;\r\n        funders.push(Funder({ addr: payable(msg.sender), amount: amount }));\r\n        amountRaised += amount;\r\n    }\r\n\r\n    function checkBlockTime() external view returns (uint256) {\r\n        return block.timestamp;\r\n    }\r\n\r\n    function getFundingGoal() external view returns (uint256) {\r\n        return fundingGoal;\r\n    }\r\n\r\n    function getNowAmountRaised() external view returns (uint256) {\r\n        return amountRaised;\r\n    }\r\n\r\n    function getDeadLine() external view returns (uint256) {\r\n        return deadline;\r\n    }\r\n\r\n    function getHutToken() external view returns (uint tokenAmount) {\r\n        return tokenReward.balanceOf(address(this));\r\n    }\r\n\r\n    function checkGoalReached() external onlyOwner {\r\n        require(block.timestamp >= deadline, 'Crowdsale not yet ended');\r\n        if (amountRaised >= fundingGoal) {\r\n            uint256 amount = amountRaised;\r\n            amountRaised = 0;\r\n            beneficiary.transfer(amount);\r\n            emit FundTransfer(beneficiary, amount, false);\r\n            emit GoalReached(amount);\r\n            for (uint256 i = 0; i < funders.length; i++) {\r\n                Funder storage funder = funders[i];\r\n                uint256 rewardAmount = funder.amount * price;\r\n                tokenReward.transfer(funder.addr, rewardAmount);\r\n                emit TokenRewardSent(funder.addr, rewardAmount);\r\n            }\r\n        } else {\r\n            for (uint256 i = 0; i < funders.length; i++) {\r\n                Funder storage funder = funders[i];\r\n                uint256 amount = funder.amount;\r\n                funder.amount = 0;\r\n\r\n                if (amount > 0) {\r\n                    funder.addr.transfer(amount);\r\n                    emit Refund(funder.addr, amount);\r\n                    emit FundTransfer(funder.addr, amount, false);\r\n                }\r\n            }\r\n        }\r\n    }\r\n\r\n    function getFundersCount() external view returns (uint256) {\r\n        return funders.length;\r\n    }\r\n}\r\n",
  "sourcePath": "C:\\Users\\effor\\Git\\windex\\server\\contracts\\CrowdSale.sol",
  "compiler": {
    "name": "solc",
    "version": "0.8.19+commit.7dd6d404.Emscripten.clang"
  },
  "schemaVersion": "3.4.13",
  "updatedAt": "2023-05-22T06:11:12.224Z",
  "networkType": "ethereum",
  "devdoc": {
    "kind": "dev",
    "methods": {
      "owner()": {
        "details": "Returns the address of the current owner."
      },
      "renounceOwnership()": {
        "details": "Leaves the contract without owner. It will not be possible to call `onlyOwner` functions anymore. Can only be called by the current owner. NOTE: Renouncing ownership will leave the contract without an owner, thereby removing any functionality that is only available to the owner."
      },
      "transferOwnership(address)": {
        "details": "Transfers ownership of the contract to a new account (`newOwner`). Can only be called by the current owner."
      }
    },
    "version": 1
  },
  "userdoc": {
    "kind": "user",
    "methods": {},
    "version": 1
  }
}