{
  "contractName": "HutToken",
  "abi": [
    {
      "inputs": [],
      "stateMutability": "nonpayable",
      "type": "constructor"
    },
    {
      "anonymous": false,
      "inputs": [
        {
          "indexed": true,
          "internalType": "address",
          "name": "owner",
          "type": "address"
        },
        {
          "indexed": true,
          "internalType": "address",
          "name": "spender",
          "type": "address"
        },
        {
          "indexed": false,
          "internalType": "uint256",
          "name": "value",
          "type": "uint256"
        }
      ],
      "name": "Approval",
      "type": "event"
    },
    {
      "anonymous": false,
      "inputs": [
        {
          "indexed": true,
          "internalType": "address",
          "name": "previousOwner",
          "type": "address"
        },
        {
          "indexed": true,
          "internalType": "address",
          "name": "newOwner",
          "type": "address"
        }
      ],
      "name": "OwnershipTransferred",
      "type": "event"
    },
    {
      "anonymous": false,
      "inputs": [
        {
          "indexed": true,
          "internalType": "address",
          "name": "from",
          "type": "address"
        },
        {
          "indexed": true,
          "internalType": "address",
          "name": "to",
          "type": "address"
        },
        {
          "indexed": false,
          "internalType": "uint256",
          "name": "value",
          "type": "uint256"
        }
      ],
      "name": "Transfer",
      "type": "event"
    },
    {
      "inputs": [
        {
          "internalType": "address",
          "name": "owner",
          "type": "address"
        },
        {
          "internalType": "address",
          "name": "spender",
          "type": "address"
        }
      ],
      "name": "allowance",
      "outputs": [
        {
          "internalType": "uint256",
          "name": "",
          "type": "uint256"
        }
      ],
      "stateMutability": "view",
      "type": "function"
    },
    {
      "inputs": [
        {
          "internalType": "address",
          "name": "spender",
          "type": "address"
        },
        {
          "internalType": "uint256",
          "name": "amount",
          "type": "uint256"
        }
      ],
      "name": "approve",
      "outputs": [
        {
          "internalType": "bool",
          "name": "",
          "type": "bool"
        }
      ],
      "stateMutability": "nonpayable",
      "type": "function"
    },
    {
      "inputs": [
        {
          "internalType": "address",
          "name": "account",
          "type": "address"
        }
      ],
      "name": "balanceOf",
      "outputs": [
        {
          "internalType": "uint256",
          "name": "",
          "type": "uint256"
        }
      ],
      "stateMutability": "view",
      "type": "function"
    },
    {
      "inputs": [
        {
          "internalType": "uint256",
          "name": "amount",
          "type": "uint256"
        }
      ],
      "name": "burn",
      "outputs": [],
      "stateMutability": "nonpayable",
      "type": "function"
    },
    {
      "inputs": [
        {
          "internalType": "address",
          "name": "account",
          "type": "address"
        },
        {
          "internalType": "uint256",
          "name": "amount",
          "type": "uint256"
        }
      ],
      "name": "burnFrom",
      "outputs": [],
      "stateMutability": "nonpayable",
      "type": "function"
    },
    {
      "inputs": [],
      "name": "decimals",
      "outputs": [
        {
          "internalType": "uint8",
          "name": "",
          "type": "uint8"
        }
      ],
      "stateMutability": "view",
      "type": "function"
    },
    {
      "inputs": [
        {
          "internalType": "address",
          "name": "spender",
          "type": "address"
        },
        {
          "internalType": "uint256",
          "name": "subtractedValue",
          "type": "uint256"
        }
      ],
      "name": "decreaseAllowance",
      "outputs": [
        {
          "internalType": "bool",
          "name": "",
          "type": "bool"
        }
      ],
      "stateMutability": "nonpayable",
      "type": "function"
    },
    {
      "inputs": [
        {
          "internalType": "address",
          "name": "spender",
          "type": "address"
        },
        {
          "internalType": "uint256",
          "name": "addedValue",
          "type": "uint256"
        }
      ],
      "name": "increaseAllowance",
      "outputs": [
        {
          "internalType": "bool",
          "name": "",
          "type": "bool"
        }
      ],
      "stateMutability": "nonpayable",
      "type": "function"
    },
    {
      "inputs": [],
      "name": "name",
      "outputs": [
        {
          "internalType": "string",
          "name": "",
          "type": "string"
        }
      ],
      "stateMutability": "view",
      "type": "function"
    },
    {
      "inputs": [],
      "name": "owner",
      "outputs": [
        {
          "internalType": "address",
          "name": "",
          "type": "address"
        }
      ],
      "stateMutability": "view",
      "type": "function"
    },
    {
      "inputs": [],
      "name": "renounceOwnership",
      "outputs": [],
      "stateMutability": "nonpayable",
      "type": "function"
    },
    {
      "inputs": [],
      "name": "symbol",
      "outputs": [
        {
          "internalType": "string",
          "name": "",
          "type": "string"
        }
      ],
      "stateMutability": "view",
      "type": "function"
    },
    {
      "inputs": [],
      "name": "totalSupply",
      "outputs": [
        {
          "internalType": "uint256",
          "name": "",
          "type": "uint256"
        }
      ],
      "stateMutability": "view",
      "type": "function"
    },
    {
      "inputs": [
        {
          "internalType": "address",
          "name": "to",
          "type": "address"
        },
        {
          "internalType": "uint256",
          "name": "amount",
          "type": "uint256"
        }
      ],
      "name": "transfer",
      "outputs": [
        {
          "internalType": "bool",
          "name": "",
          "type": "bool"
        }
      ],
      "stateMutability": "nonpayable",
      "type": "function"
    },
    {
      "inputs": [
        {
          "internalType": "address",
          "name": "from",
          "type": "address"
        },
        {
          "internalType": "address",
          "name": "to",
          "type": "address"
        },
        {
          "internalType": "uint256",
          "name": "amount",
          "type": "uint256"
        }
      ],
      "name": "transferFrom",
      "outputs": [
        {
          "internalType": "bool",
          "name": "",
          "type": "bool"
        }
      ],
      "stateMutability": "nonpayable",
      "type": "function"
    },
    {
      "inputs": [
        {
          "internalType": "address",
          "name": "newOwner",
          "type": "address"
        }
      ],
      "name": "transferOwnership",
      "outputs": [],
      "stateMutability": "nonpayable",
      "type": "function"
    },
    {
      "inputs": [],
      "name": "checkSupply",
      "outputs": [
        {
          "internalType": "uint256",
          "name": "",
          "type": "uint256"
        }
      ],
      "stateMutability": "view",
      "type": "function"
    },
    {
      "inputs": [],
      "name": "cap",
      "outputs": [
        {
          "internalType": "uint256",
          "name": "",
          "type": "uint256"
        }
      ],
      "stateMutability": "view",
      "type": "function"
    },
    {
      "inputs": [
        {
          "internalType": "address",
          "name": "rec",
          "type": "address"
        },
        {
          "internalType": "uint256",
          "name": "amount",
          "type": "uint256"
        }
      ],
      "name": "minting",
      "outputs": [],
      "stateMutability": "nonpayable",
      "type": "function"
    },
    {
      "inputs": [
        {
          "internalType": "address",
          "name": "account",
          "type": "address"
        },
        {
          "internalType": "uint256",
          "name": "amount",
          "type": "uint256"
        }
      ],
      "name": "burning",
      "outputs": [],
      "stateMutability": "nonpayable",
      "type": "function"
    }
  ],
  "bytecode": "0x60a0604052620000146200017060201b60201c565b600a620000229190620005f3565b6103e862000031919062000644565b6007553480156200004157600080fd5b50683635c9adc5dea000006040518060400160405280600881526020017f487574546f6b656e0000000000000000000000000000000000000000000000008152506040518060400160405280600381526020017f48555400000000000000000000000000000000000000000000000000000000008152508160039081620000c99190620008ff565b508060049081620000db9190620008ff565b505050620000fe620000f26200017960201b60201c565b6200018160201b60201c565b6000811162000144576040517f08c379a00000000000000000000000000000000000000000000000000000000081526004016200013b9062000a47565b60405180910390fd5b8060808181525050506007546006819055506200016a336006546200024760201b60201c565b62000bb6565b60006012905090565b600033905090565b6000600560009054906101000a900473ffffffffffffffffffffffffffffffffffffffff16905081600560006101000a81548173ffffffffffffffffffffffffffffffffffffffff021916908373ffffffffffffffffffffffffffffffffffffffff1602179055508173ffffffffffffffffffffffffffffffffffffffff168173ffffffffffffffffffffffffffffffffffffffff167f8be0079c531659141344cd1fd0a4f28419497f9722a3daafe3b4186f6b6457e060405160405180910390a35050565b62000257620002ce60201b60201c565b8162000268620002d860201b60201c565b62000274919062000a69565b1115620002b8576040517f08c379a0000000000000000000000000000000000000000000000000000000008152600401620002af9062000af4565b60405180910390fd5b620002ca8282620002e260201b60201c565b5050565b6000600654905090565b6000600254905090565b600073ffffffffffffffffffffffffffffffffffffffff168273ffffffffffffffffffffffffffffffffffffffff160362000354576040517f08c379a00000000000000000000000000000000000000000000000000000000081526004016200034b9062000b66565b60405180910390fd5b62000368600083836200044f60201b60201c565b80600260008282546200037c919062000a69565b92505081905550806000808473ffffffffffffffffffffffffffffffffffffffff1673ffffffffffffffffffffffffffffffffffffffff168152602001908152602001600020600082825401925050819055508173ffffffffffffffffffffffffffffffffffffffff16600073ffffffffffffffffffffffffffffffffffffffff167fddf252ad1be2c89b69c2b068fc378daa952ba7f163c4a11628f55a4df523b3ef836040516200042f919062000b99565b60405180910390a36200044b600083836200045460201b60201c565b5050565b505050565b505050565b7f4e487b7100000000000000000000000000000000000000000000000000000000600052601160045260246000fd5b60008160011c9050919050565b6000808291508390505b6001851115620004e757808604811115620004bf57620004be62000459565b5b6001851615620004cf5780820291505b8081029050620004df8562000488565b94506200049f565b94509492505050565b600082620005025760019050620005d5565b81620005125760009050620005d5565b81600181146200052b576002811462000536576200056c565b6001915050620005d5565b60ff8411156200054b576200054a62000459565b5b8360020a91508482111562000565576200056462000459565b5b50620005d5565b5060208310610133831016604e8410600b8410161715620005a65782820a905083811115620005a0576200059f62000459565b5b620005d5565b620005b5848484600162000495565b92509050818404811115620005cf57620005ce62000459565b5b81810290505b9392505050565b6000819050919050565b600060ff82169050919050565b60006200060082620005dc565b91506200060d83620005e6565b92506200063c7fffffffffffffffffffffffffffffffffffffffffffffffffffffffffffffffff8484620004f0565b905092915050565b60006200065182620005dc565b91506200065e83620005dc565b92508282026200066e81620005dc565b9150828204841483151762000688576200068762000459565b5b5092915050565b600081519050919050565b7f4e487b7100000000000000000000000000000000000000000000000000000000600052604160045260246000fd5b7f4e487b7100000000000000000000000000000000000000000000000000000000600052602260045260246000fd5b600060028204905060018216806200071157607f821691505b602082108103620007275762000726620006c9565b5b50919050565b60008190508160005260206000209050919050565b60006020601f8301049050919050565b600082821b905092915050565b600060088302620007917fffffffffffffffffffffffffffffffffffffffffffffffffffffffffffffffff8262000752565b6200079d868362000752565b95508019841693508086168417925050509392505050565b6000819050919050565b6000620007e0620007da620007d484620005dc565b620007b5565b620005dc565b9050919050565b6000819050919050565b620007fc83620007bf565b620008146200080b82620007e7565b8484546200075f565b825550505050565b600090565b6200082b6200081c565b62000838818484620007f1565b505050565b5b8181101562000860576200085460008262000821565b6001810190506200083e565b5050565b601f821115620008af5762000879816200072d565b620008848462000742565b8101602085101562000894578190505b620008ac620008a38562000742565b8301826200083d565b50505b505050565b600082821c905092915050565b6000620008d460001984600802620008b4565b1980831691505092915050565b6000620008ef8383620008c1565b9150826002028217905092915050565b6200090a826200068f565b67ffffffffffffffff8111156200092657620009256200069a565b5b620009328254620006f8565b6200093f82828562000864565b600060209050601f83116001811462000977576000841562000962578287015190505b6200096e8582620008e1565b865550620009de565b601f19841662000987866200072d565b60005b82811015620009b1578489015182556001820191506020850194506020810190506200098a565b86831015620009d15784890151620009cd601f891682620008c1565b8355505b6001600288020188555050505b505050505050565b600082825260208201905092915050565b7f45524332304361707065643a2063617020697320300000000000000000000000600082015250565b600062000a2f601583620009e6565b915062000a3c82620009f7565b602082019050919050565b6000602082019050818103600083015262000a628162000a20565b9050919050565b600062000a7682620005dc565b915062000a8383620005dc565b925082820190508082111562000a9e5762000a9d62000459565b5b92915050565b7f45524332304361707065643a2063617020657863656564656400000000000000600082015250565b600062000adc601983620009e6565b915062000ae98262000aa4565b602082019050919050565b6000602082019050818103600083015262000b0f8162000acd565b9050919050565b7f45524332303a206d696e7420746f20746865207a65726f206164647265737300600082015250565b600062000b4e601f83620009e6565b915062000b5b8262000b16565b602082019050919050565b6000602082019050818103600083015262000b818162000b3f565b9050919050565b62000b9381620005dc565b82525050565b600060208201905062000bb0600083018462000b88565b92915050565b608051611d6462000bcf60003960005050611d646000f3fe608060405234801561001057600080fd5b506004361061012c5760003560e01c8063715018a6116100ad578063a9059cbb11610071578063a9059cbb14610333578063a92b57e014610363578063c615f5c11461037f578063dd62ed3e1461039d578063f2fde38b146103cd5761012c565b8063715018a6146102a157806379cc6790146102ab5780638da5cb5b146102c757806395d89b41146102e5578063a457c2d7146103035761012c565b8063313ce567116100f4578063313ce567146101e9578063355274ea14610207578063395093511461022557806342966c681461025557806370a08231146102715761012c565b806306fdde0314610131578063095ea7b31461014f57806318160ddd1461017f578063233ebc8b1461019d57806323b872dd146101b9575b600080fd5b6101396103e9565b60405161014691906112bc565b60405180910390f35b61016960048036038101906101649190611377565b61047b565b60405161017691906113d2565b60405180910390f35b61018761049e565b60405161019491906113fc565b60405180910390f35b6101b760048036038101906101b29190611377565b6104a8565b005b6101d360048036038101906101ce9190611417565b6104d7565b6040516101e091906113d2565b60405180910390f35b6101f1610506565b6040516101fe9190611486565b60405180910390f35b61020f61050f565b60405161021c91906113fc565b60405180910390f35b61023f600480360381019061023a9190611377565b610519565b60405161024c91906113d2565b60405180910390f35b61026f600480360381019061026a91906114a1565b610550565b005b61028b600480360381019061028691906114ce565b610564565b60405161029891906113fc565b60405180910390f35b6102a96105ac565b005b6102c560048036038101906102c09190611377565b6105c0565b005b6102cf6105e0565b6040516102dc919061150a565b60405180910390f35b6102ed61060a565b6040516102fa91906112bc565b60405180910390f35b61031d60048036038101906103189190611377565b61069c565b60405161032a91906113d2565b60405180910390f35b61034d60048036038101906103489190611377565b610713565b60405161035a91906113d2565b60405180910390f35b61037d60048036038101906103789190611377565b610736565b005b610387610765565b60405161039491906113fc565b60405180910390f35b6103b760048036038101906103b29190611525565b610774565b6040516103c491906113fc565b60405180910390f35b6103e760048036038101906103e291906114ce565b6107fb565b005b6060600380546103f890611594565b80601f016020809104026020016040519081016040528092919081815260200182805461042490611594565b80156104715780601f1061044657610100808354040283529160200191610471565b820191906000526020600020905b81548152906001019060200180831161045457829003601f168201915b5050505050905090565b60008061048661087e565b9050610493818585610886565b600191505092915050565b6000600254905090565b6104b0610a4f565b80600660008282546104c291906115f4565b925050819055506104d38282610acd565b5050565b6000806104e261087e565b90506104ef858285610b37565b6104fa858585610bc3565b60019150509392505050565b60006012905090565b6000600654905090565b60008061052461087e565b90506105458185856105368589610774565b61054091906115f4565b610886565b600191505092915050565b61056161055b61087e565b82610e39565b50565b60008060008373ffffffffffffffffffffffffffffffffffffffff1673ffffffffffffffffffffffffffffffffffffffff168152602001908152602001600020549050919050565b6105b4610a4f565b6105be6000611006565b565b6105d2826105cc61087e565b83610b37565b6105dc8282610e39565b5050565b6000600560009054906101000a900473ffffffffffffffffffffffffffffffffffffffff16905090565b60606004805461061990611594565b80601f016020809104026020016040519081016040528092919081815260200182805461064590611594565b80156106925780601f1061066757610100808354040283529160200191610692565b820191906000526020600020905b81548152906001019060200180831161067557829003601f168201915b5050505050905090565b6000806106a761087e565b905060006106b58286610774565b9050838110156106fa576040517f08c379a00000000000000000000000000000000000000000000000000000000081526004016106f19061169a565b60405180910390fd5b6107078286868403610886565b60019250505092915050565b60008061071e61087e565b905061072b818585610bc3565b600191505092915050565b61073e610a4f565b806006600082825461075091906116ba565b925050819055506107618282610e39565b5050565b600061076f61049e565b905090565b6000600160008473ffffffffffffffffffffffffffffffffffffffff1673ffffffffffffffffffffffffffffffffffffffff16815260200190815260200160002060008373ffffffffffffffffffffffffffffffffffffffff1673ffffffffffffffffffffffffffffffffffffffff16815260200190815260200160002054905092915050565b610803610a4f565b600073ffffffffffffffffffffffffffffffffffffffff168173ffffffffffffffffffffffffffffffffffffffff1603610872576040517f08c379a000000000000000000000000000000000000000000000000000000000815260040161086990611760565b60405180910390fd5b61087b81611006565b50565b600033905090565b600073ffffffffffffffffffffffffffffffffffffffff168373ffffffffffffffffffffffffffffffffffffffff16036108f5576040517f08c379a00000000000000000000000000000000000000000000000000000000081526004016108ec906117f2565b60405180910390fd5b600073ffffffffffffffffffffffffffffffffffffffff168273ffffffffffffffffffffffffffffffffffffffff1603610964576040517f08c379a000000000000000000000000000000000000000000000000000000000815260040161095b90611884565b60405180910390fd5b80600160008573ffffffffffffffffffffffffffffffffffffffff1673ffffffffffffffffffffffffffffffffffffffff16815260200190815260200160002060008473ffffffffffffffffffffffffffffffffffffffff1673ffffffffffffffffffffffffffffffffffffffff168152602001908152602001600020819055508173ffffffffffffffffffffffffffffffffffffffff168373ffffffffffffffffffffffffffffffffffffffff167f8c5be1e5ebec7d5bd14f71427d1e84f3dd0314c0f7b2291e5b200ac8c7c3b92583604051610a4291906113fc565b60405180910390a3505050565b610a5761087e565b73ffffffffffffffffffffffffffffffffffffffff16610a756105e0565b73ffffffffffffffffffffffffffffffffffffffff1614610acb576040517f08c379a0000000000000000000000000000000000000000000000000000000008152600401610ac2906118f0565b60405180910390fd5b565b610ad561050f565b81610ade61049e565b610ae891906115f4565b1115610b29576040517f08c379a0000000000000000000000000000000000000000000000000000000008152600401610b209061195c565b60405180910390fd5b610b3382826110cc565b5050565b6000610b438484610774565b90507fffffffffffffffffffffffffffffffffffffffffffffffffffffffffffffffff8114610bbd5781811015610baf576040517f08c379a0000000000000000000000000000000000000000000000000000000008152600401610ba6906119c8565b60405180910390fd5b610bbc8484848403610886565b5b50505050565b600073ffffffffffffffffffffffffffffffffffffffff168373ffffffffffffffffffffffffffffffffffffffff1603610c32576040517f08c379a0000000000000000000000000000000000000000000000000000000008152600401610c2990611a5a565b60405180910390fd5b600073ffffffffffffffffffffffffffffffffffffffff168273ffffffffffffffffffffffffffffffffffffffff1603610ca1576040517f08c379a0000000000000000000000000000000000000000000000000000000008152600401610c9890611aec565b60405180910390fd5b610cac838383611222565b60008060008573ffffffffffffffffffffffffffffffffffffffff1673ffffffffffffffffffffffffffffffffffffffff16815260200190815260200160002054905081811015610d32576040517f08c379a0000000000000000000000000000000000000000000000000000000008152600401610d2990611b7e565b60405180910390fd5b8181036000808673ffffffffffffffffffffffffffffffffffffffff1673ffffffffffffffffffffffffffffffffffffffff16815260200190815260200160002081905550816000808573ffffffffffffffffffffffffffffffffffffffff1673ffffffffffffffffffffffffffffffffffffffff168152602001908152602001600020600082825401925050819055508273ffffffffffffffffffffffffffffffffffffffff168473ffffffffffffffffffffffffffffffffffffffff167fddf252ad1be2c89b69c2b068fc378daa952ba7f163c4a11628f55a4df523b3ef84604051610e2091906113fc565b60405180910390a3610e33848484611227565b50505050565b600073ffffffffffffffffffffffffffffffffffffffff168273ffffffffffffffffffffffffffffffffffffffff1603610ea8576040517f08c379a0000000000000000000000000000000000000000000000000000000008152600401610e9f90611c10565b60405180910390fd5b610eb482600083611222565b60008060008473ffffffffffffffffffffffffffffffffffffffff1673ffffffffffffffffffffffffffffffffffffffff16815260200190815260200160002054905081811015610f3a576040517f08c379a0000000000000000000000000000000000000000000000000000000008152600401610f3190611ca2565b60405180910390fd5b8181036000808573ffffffffffffffffffffffffffffffffffffffff1673ffffffffffffffffffffffffffffffffffffffff1681526020019081526020016000208190555081600260008282540392505081905550600073ffffffffffffffffffffffffffffffffffffffff168373ffffffffffffffffffffffffffffffffffffffff167fddf252ad1be2c89b69c2b068fc378daa952ba7f163c4a11628f55a4df523b3ef84604051610fed91906113fc565b60405180910390a361100183600084611227565b505050565b6000600560009054906101000a900473ffffffffffffffffffffffffffffffffffffffff16905081600560006101000a81548173ffffffffffffffffffffffffffffffffffffffff021916908373ffffffffffffffffffffffffffffffffffffffff1602179055508173ffffffffffffffffffffffffffffffffffffffff168173ffffffffffffffffffffffffffffffffffffffff167f8be0079c531659141344cd1fd0a4f28419497f9722a3daafe3b4186f6b6457e060405160405180910390a35050565b600073ffffffffffffffffffffffffffffffffffffffff168273ffffffffffffffffffffffffffffffffffffffff160361113b576040517f08c379a000000000000000000000000000000000000000000000000000000000815260040161113290611d0e565b60405180910390fd5b61114760008383611222565b806002600082825461115991906115f4565b92505081905550806000808473ffffffffffffffffffffffffffffffffffffffff1673ffffffffffffffffffffffffffffffffffffffff168152602001908152602001600020600082825401925050819055508173ffffffffffffffffffffffffffffffffffffffff16600073ffffffffffffffffffffffffffffffffffffffff167fddf252ad1be2c89b69c2b068fc378daa952ba7f163c4a11628f55a4df523b3ef8360405161120a91906113fc565b60405180910390a361121e60008383611227565b5050565b505050565b505050565b600081519050919050565b600082825260208201905092915050565b60005b8381101561126657808201518184015260208101905061124b565b60008484015250505050565b6000601f19601f8301169050919050565b600061128e8261122c565b6112988185611237565b93506112a8818560208601611248565b6112b181611272565b840191505092915050565b600060208201905081810360008301526112d68184611283565b905092915050565b600080fd5b600073ffffffffffffffffffffffffffffffffffffffff82169050919050565b600061130e826112e3565b9050919050565b61131e81611303565b811461132957600080fd5b50565b60008135905061133b81611315565b92915050565b6000819050919050565b61135481611341565b811461135f57600080fd5b50565b6000813590506113718161134b565b92915050565b6000806040838503121561138e5761138d6112de565b5b600061139c8582860161132c565b92505060206113ad85828601611362565b9150509250929050565b60008115159050919050565b6113cc816113b7565b82525050565b60006020820190506113e760008301846113c3565b92915050565b6113f681611341565b82525050565b600060208201905061141160008301846113ed565b92915050565b6000806000606084860312156114305761142f6112de565b5b600061143e8682870161132c565b935050602061144f8682870161132c565b925050604061146086828701611362565b9150509250925092565b600060ff82169050919050565b6114808161146a565b82525050565b600060208201905061149b6000830184611477565b92915050565b6000602082840312156114b7576114b66112de565b5b60006114c584828501611362565b91505092915050565b6000602082840312156114e4576114e36112de565b5b60006114f28482850161132c565b91505092915050565b61150481611303565b82525050565b600060208201905061151f60008301846114fb565b92915050565b6000806040838503121561153c5761153b6112de565b5b600061154a8582860161132c565b925050602061155b8582860161132c565b9150509250929050565b7f4e487b7100000000000000000000000000000000000000000000000000000000600052602260045260246000fd5b600060028204905060018216806115ac57607f821691505b6020821081036115bf576115be611565565b5b50919050565b7f4e487b7100000000000000000000000000000000000000000000000000000000600052601160045260246000fd5b60006115ff82611341565b915061160a83611341565b9250828201905080821115611622576116216115c5565b5b92915050565b7f45524332303a2064656372656173656420616c6c6f77616e63652062656c6f7760008201527f207a65726f000000000000000000000000000000000000000000000000000000602082015250565b6000611684602583611237565b915061168f82611628565b604082019050919050565b600060208201905081810360008301526116b381611677565b9050919050565b60006116c582611341565b91506116d083611341565b92508282039050818111156116e8576116e76115c5565b5b92915050565b7f4f776e61626c653a206e6577206f776e657220697320746865207a65726f206160008201527f6464726573730000000000000000000000000000000000000000000000000000602082015250565b600061174a602683611237565b9150611755826116ee565b604082019050919050565b600060208201905081810360008301526117798161173d565b9050919050565b7f45524332303a20617070726f76652066726f6d20746865207a65726f2061646460008201527f7265737300000000000000000000000000000000000000000000000000000000602082015250565b60006117dc602483611237565b91506117e782611780565b604082019050919050565b6000602082019050818103600083015261180b816117cf565b9050919050565b7f45524332303a20617070726f766520746f20746865207a65726f20616464726560008201527f7373000000000000000000000000000000000000000000000000000000000000602082015250565b600061186e602283611237565b915061187982611812565b604082019050919050565b6000602082019050818103600083015261189d81611861565b9050919050565b7f4f776e61626c653a2063616c6c6572206973206e6f7420746865206f776e6572600082015250565b60006118da602083611237565b91506118e5826118a4565b602082019050919050565b60006020820190508181036000830152611909816118cd565b9050919050565b7f45524332304361707065643a2063617020657863656564656400000000000000600082015250565b6000611946601983611237565b915061195182611910565b602082019050919050565b6000602082019050818103600083015261197581611939565b9050919050565b7f45524332303a20696e73756666696369656e7420616c6c6f77616e6365000000600082015250565b60006119b2601d83611237565b91506119bd8261197c565b602082019050919050565b600060208201905081810360008301526119e1816119a5565b9050919050565b7f45524332303a207472616e736665722066726f6d20746865207a65726f20616460008201527f6472657373000000000000000000000000000000000000000000000000000000602082015250565b6000611a44602583611237565b9150611a4f826119e8565b604082019050919050565b60006020820190508181036000830152611a7381611a37565b9050919050565b7f45524332303a207472616e7366657220746f20746865207a65726f206164647260008201527f6573730000000000000000000000000000000000000000000000000000000000602082015250565b6000611ad6602383611237565b9150611ae182611a7a565b604082019050919050565b60006020820190508181036000830152611b0581611ac9565b9050919050565b7f45524332303a207472616e7366657220616d6f756e742065786365656473206260008201527f616c616e63650000000000000000000000000000000000000000000000000000602082015250565b6000611b68602683611237565b9150611b7382611b0c565b604082019050919050565b60006020820190508181036000830152611b9781611b5b565b9050919050565b7f45524332303a206275726e2066726f6d20746865207a65726f2061646472657360008201527f7300000000000000000000000000000000000000000000000000000000000000602082015250565b6000611bfa602183611237565b9150611c0582611b9e565b604082019050919050565b60006020820190508181036000830152611c2981611bed565b9050919050565b7f45524332303a206275726e20616d6f756e7420657863656564732062616c616e60008201527f6365000000000000000000000000000000000000000000000000000000000000602082015250565b6000611c8c602283611237565b9150611c9782611c30565b604082019050919050565b60006020820190508181036000830152611cbb81611c7f565b9050919050565b7f45524332303a206d696e7420746f20746865207a65726f206164647265737300600082015250565b6000611cf8601f83611237565b9150611d0382611cc2565b602082019050919050565b60006020820190508181036000830152611d2781611ceb565b905091905056fea2646970667358221220d30f4c58c853f91cd3f7673cb856f5739ab1c1530436cf7e9059fc67e76225e264736f6c63430008130033",
  "immutableReferences": {},
  "source": "//SPDX-License-Identifier: MIT\r\npragma solidity ^0.8.19;\r\n\r\nimport '../node_modules/@openzeppelin/contracts/token/ERC20/extensions/ERC20Capped.sol';\r\nimport '../node_modules/@openzeppelin/contracts/token/ERC20/extensions/ERC20Burnable.sol';\r\nimport '../node_modules/@openzeppelin/contracts/access/Ownable.sol';\r\n\r\ncontract HutToken is ERC20Burnable, Ownable, ERC20Capped {\r\n    uint256 private _cap;\r\n    uint256 private initialSupply = 1000 * 10 ** decimals();\r\n\r\n    constructor() ERC20('HutToken', 'HUT') ERC20Capped(1000 * 10 ** 18) {\r\n        _cap = initialSupply;\r\n        _mint(msg.sender, _cap);\r\n    }\r\n\r\n    function checkSupply() external view returns (uint256) {\r\n        return totalSupply();\r\n    }\r\n\r\n    function cap() public view virtual override returns (uint256) {\r\n        return _cap;\r\n    }\r\n\r\n    function _mint(address account, uint256 amount) internal override(ERC20, ERC20Capped) {\r\n        require(totalSupply() + amount <= cap(), 'ERC20Capped: cap exceeded');\r\n        ERC20._mint(account, amount);\r\n    }\r\n\r\n    function minting(address rec, uint256 amount) external onlyOwner {\r\n        _cap += amount;\r\n        _mint(rec, amount);\r\n    }\r\n\r\n    function burning(address account, uint256 amount) external onlyOwner {\r\n        _cap -= amount;\r\n        _burn(account, amount);\r\n    }\r\n}\r\n",
  "sourcePath": "C:\\Users\\effor\\Git\\windex\\server\\contracts\\HutToken.sol",
  "compiler": {
    "name": "solc",
    "version": "0.8.19+commit.7dd6d404.Emscripten.clang"
  },
  "schemaVersion": "3.4.13",
  "updatedAt": "2023-05-22T06:10:58.674Z",
  "devdoc": {
    "events": {
      "Approval(address,address,uint256)": {
        "details": "Emitted when the allowance of a `spender` for an `owner` is set by a call to {approve}. `value` is the new allowance."
      },
      "Transfer(address,address,uint256)": {
        "details": "Emitted when `value` tokens are moved from one account (`from`) to another (`to`). Note that `value` may be zero."
      }
    },
    "kind": "dev",
    "methods": {
      "allowance(address,address)": {
        "details": "See {IERC20-allowance}."
      },
      "approve(address,uint256)": {
        "details": "See {IERC20-approve}. NOTE: If `amount` is the maximum `uint256`, the allowance is not updated on `transferFrom`. This is semantically equivalent to an infinite approval. Requirements: - `spender` cannot be the zero address."
      },
      "balanceOf(address)": {
        "details": "See {IERC20-balanceOf}."
      },
      "burn(uint256)": {
        "details": "Destroys `amount` tokens from the caller. See {ERC20-_burn}."
      },
      "burnFrom(address,uint256)": {
        "details": "Destroys `amount` tokens from `account`, deducting from the caller's allowance. See {ERC20-_burn} and {ERC20-allowance}. Requirements: - the caller must have allowance for ``accounts``'s tokens of at least `amount`."
      },
      "cap()": {
        "details": "Returns the cap on the token's total supply."
      },
      "decimals()": {
        "details": "Returns the number of decimals used to get its user representation. For example, if `decimals` equals `2`, a balance of `505` tokens should be displayed to a user as `5.05` (`505 / 10 ** 2`). Tokens usually opt for a value of 18, imitating the relationship between Ether and Wei. This is the value {ERC20} uses, unless this function is overridden; NOTE: This information is only used for _display_ purposes: it in no way affects any of the arithmetic of the contract, including {IERC20-balanceOf} and {IERC20-transfer}."
      },
      "decreaseAllowance(address,uint256)": {
        "details": "Atomically decreases the allowance granted to `spender` by the caller. This is an alternative to {approve} that can be used as a mitigation for problems described in {IERC20-approve}. Emits an {Approval} event indicating the updated allowance. Requirements: - `spender` cannot be the zero address. - `spender` must have allowance for the caller of at least `subtractedValue`."
      },
      "increaseAllowance(address,uint256)": {
        "details": "Atomically increases the allowance granted to `spender` by the caller. This is an alternative to {approve} that can be used as a mitigation for problems described in {IERC20-approve}. Emits an {Approval} event indicating the updated allowance. Requirements: - `spender` cannot be the zero address."
      },
      "name()": {
        "details": "Returns the name of the token."
      },
      "owner()": {
        "details": "Returns the address of the current owner."
      },
      "renounceOwnership()": {
        "details": "Leaves the contract without owner. It will not be possible to call `onlyOwner` functions anymore. Can only be called by the current owner. NOTE: Renouncing ownership will leave the contract without an owner, thereby removing any functionality that is only available to the owner."
      },
      "symbol()": {
        "details": "Returns the symbol of the token, usually a shorter version of the name."
      },
      "totalSupply()": {
        "details": "See {IERC20-totalSupply}."
      },
      "transfer(address,uint256)": {
        "details": "See {IERC20-transfer}. Requirements: - `to` cannot be the zero address. - the caller must have a balance of at least `amount`."
      },
      "transferFrom(address,address,uint256)": {
        "details": "See {IERC20-transferFrom}. Emits an {Approval} event indicating the updated allowance. This is not required by the EIP. See the note at the beginning of {ERC20}. NOTE: Does not update the allowance if the current allowance is the maximum `uint256`. Requirements: - `from` and `to` cannot be the zero address. - `from` must have a balance of at least `amount`. - the caller must have allowance for ``from``'s tokens of at least `amount`."
      },
      "transferOwnership(address)": {
        "details": "Transfers ownership of the contract to a new account (`newOwner`). Can only be called by the current owner."
      }
    },
    "version": 1
  },
  "userdoc": {
    "kind": "user",
    "methods": {},
    "version": 1
  }
}