{
  "contractName": "StakingNFT",
  "abi": [
    {
      "inputs": [
        {
          "internalType": "address",
          "name": "_HutTokenAddress",
          "type": "address"
        },
        {
          "internalType": "address",
          "name": "_nftAddress",
          "type": "address"
        }
      ],
      "stateMutability": "nonpayable",
      "type": "constructor"
    },
    {
      "anonymous": false,
      "inputs": [
        {
          "indexed": false,
          "internalType": "address",
          "name": "_owner",
          "type": "address"
        },
        {
          "indexed": false,
          "internalType": "uint256",
          "name": "amount",
          "type": "uint256"
        }
      ],
      "name": "Claimed",
      "type": "event"
    },
    {
      "anonymous": false,
      "inputs": [
        {
          "indexed": false,
          "internalType": "address",
          "name": "_owner",
          "type": "address"
        },
        {
          "indexed": false,
          "internalType": "uint256",
          "name": "_tokenId",
          "type": "uint256"
        },
        {
          "indexed": false,
          "internalType": "uint256",
          "name": "_amount",
          "type": "uint256"
        }
      ],
      "name": "NFTStaked",
      "type": "event"
    },
    {
      "anonymous": false,
      "inputs": [
        {
          "indexed": false,
          "internalType": "address",
          "name": "_owner",
          "type": "address"
        },
        {
          "indexed": false,
          "internalType": "uint256",
          "name": "_tokenId",
          "type": "uint256"
        },
        {
          "indexed": false,
          "internalType": "uint256",
          "name": "_amount",
          "type": "uint256"
        }
      ],
      "name": "NFTUnstaked",
      "type": "event"
    },
    {
      "inputs": [],
      "name": "hutToken",
      "outputs": [
        {
          "internalType": "contract HutToken",
          "name": "",
          "type": "address"
        }
      ],
      "stateMutability": "view",
      "type": "function"
    },
    {
      "inputs": [],
      "name": "nft",
      "outputs": [
        {
          "internalType": "contract WinenwinToken",
          "name": "",
          "type": "address"
        }
      ],
      "stateMutability": "view",
      "type": "function"
    },
    {
      "inputs": [
        {
          "internalType": "uint256",
          "name": "",
          "type": "uint256"
        }
      ],
      "name": "stakeList",
      "outputs": [
        {
          "internalType": "address",
          "name": "owner",
          "type": "address"
        },
        {
          "internalType": "uint256",
          "name": "tokenId",
          "type": "uint256"
        },
        {
          "internalType": "uint256",
          "name": "start",
          "type": "uint256"
        },
        {
          "internalType": "uint256",
          "name": "amount",
          "type": "uint256"
        },
        {
          "internalType": "uint256",
          "name": "deadline",
          "type": "uint256"
        },
        {
          "internalType": "uint256",
          "name": "reward",
          "type": "uint256"
        },
        {
          "internalType": "bool",
          "name": "isClaimed",
          "type": "bool"
        }
      ],
      "stateMutability": "view",
      "type": "function"
    },
    {
      "inputs": [],
      "name": "totalRewards",
      "outputs": [
        {
          "internalType": "uint256",
          "name": "",
          "type": "uint256"
        }
      ],
      "stateMutability": "view",
      "type": "function"
    },
    {
      "inputs": [
        {
          "internalType": "uint256",
          "name": "_tokenId",
          "type": "uint256"
        },
        {
          "internalType": "uint256",
          "name": "_amount",
          "type": "uint256"
        },
        {
          "internalType": "uint256",
          "name": "_duration",
          "type": "uint256"
        },
        {
          "internalType": "uint256",
          "name": "_reward",
          "type": "uint256"
        }
      ],
      "name": "staking",
      "outputs": [],
      "stateMutability": "nonpayable",
      "type": "function"
    },
    {
      "inputs": [
        {
          "internalType": "uint256[]",
          "name": "_tokenIds",
          "type": "uint256[]"
        },
        {
          "internalType": "uint256[]",
          "name": "_amounts",
          "type": "uint256[]"
        },
        {
          "internalType": "uint256[]",
          "name": "_durations",
          "type": "uint256[]"
        },
        {
          "internalType": "uint256[]",
          "name": "_rewards",
          "type": "uint256[]"
        }
      ],
      "name": "stakingBatch",
      "outputs": [],
      "stateMutability": "nonpayable",
      "type": "function"
    },
    {
      "inputs": [
        {
          "internalType": "uint256",
          "name": "_tokenId",
          "type": "uint256"
        },
        {
          "internalType": "uint256",
          "name": "_start",
          "type": "uint256"
        }
      ],
      "name": "unStaking",
      "outputs": [],
      "stateMutability": "nonpayable",
      "type": "function"
    },
    {
      "inputs": [
        {
          "internalType": "uint256",
          "name": "_tokenId",
          "type": "uint256"
        },
        {
          "internalType": "uint256",
          "name": "_start",
          "type": "uint256"
        }
      ],
      "name": "getStakeInfo",
      "outputs": [
        {
          "components": [
            {
              "internalType": "address",
              "name": "owner",
              "type": "address"
            },
            {
              "internalType": "uint256",
              "name": "tokenId",
              "type": "uint256"
            },
            {
              "internalType": "uint256",
              "name": "start",
              "type": "uint256"
            },
            {
              "internalType": "uint256",
              "name": "amount",
              "type": "uint256"
            },
            {
              "internalType": "uint256",
              "name": "deadline",
              "type": "uint256"
            },
            {
              "internalType": "uint256",
              "name": "reward",
              "type": "uint256"
            },
            {
              "internalType": "bool",
              "name": "isClaimed",
              "type": "bool"
            }
          ],
          "internalType": "struct StakingNFT.StakeItem",
          "name": "",
          "type": "tuple"
        }
      ],
      "stateMutability": "view",
      "type": "function"
    },
    {
      "inputs": [],
      "name": "getHutToken",
      "outputs": [
        {
          "internalType": "uint256",
          "name": "tokenAmount",
          "type": "uint256"
        }
      ],
      "stateMutability": "view",
      "type": "function"
    },
    {
      "inputs": [],
      "name": "getTotalRewards",
      "outputs": [
        {
          "internalType": "uint256",
          "name": "",
          "type": "uint256"
        }
      ],
      "stateMutability": "view",
      "type": "function"
    },
    {
      "inputs": [],
      "name": "getStakingList",
      "outputs": [
        {
          "components": [
            {
              "internalType": "address",
              "name": "owner",
              "type": "address"
            },
            {
              "internalType": "uint256",
              "name": "tokenId",
              "type": "uint256"
            },
            {
              "internalType": "uint256",
              "name": "start",
              "type": "uint256"
            },
            {
              "internalType": "uint256",
              "name": "amount",
              "type": "uint256"
            },
            {
              "internalType": "uint256",
              "name": "deadline",
              "type": "uint256"
            },
            {
              "internalType": "uint256",
              "name": "reward",
              "type": "uint256"
            },
            {
              "internalType": "bool",
              "name": "isClaimed",
              "type": "bool"
            }
          ],
          "internalType": "struct StakingNFT.StakeItem[]",
          "name": "",
          "type": "tuple[]"
        }
      ],
      "stateMutability": "view",
      "type": "function"
    },
    {
      "inputs": [],
      "name": "getTokenListLength",
      "outputs": [
        {
          "internalType": "uint256",
          "name": "",
          "type": "uint256"
        }
      ],
      "stateMutability": "view",
      "type": "function"
    },
    {
      "inputs": [
        {
          "internalType": "uint256",
          "name": "_stakeListLength",
          "type": "uint256"
        }
      ],
      "name": "getStakeTime",
      "outputs": [
        {
          "internalType": "uint256",
          "name": "",
          "type": "uint256"
        }
      ],
      "stateMutability": "view",
      "type": "function"
    },
    {
      "inputs": [
        {
          "internalType": "uint256",
          "name": "_stakeListLength",
          "type": "uint256"
        }
      ],
      "name": "getDeadline",
      "outputs": [
        {
          "internalType": "uint256",
          "name": "",
          "type": "uint256"
        }
      ],
      "stateMutability": "view",
      "type": "function"
    },
    {
      "inputs": [],
      "name": "getOwnerTokenList",
      "outputs": [
        {
          "components": [
            {
              "internalType": "uint256",
              "name": "tokenId",
              "type": "uint256"
            },
            {
              "internalType": "uint256",
              "name": "amount",
              "type": "uint256"
            }
          ],
          "internalType": "struct StakingNFT.NftInfo[]",
          "name": "",
          "type": "tuple[]"
        }
      ],
      "stateMutability": "view",
      "type": "function"
    },
    {
      "inputs": [
        {
          "internalType": "uint256[]",
          "name": "_tokenIds",
          "type": "uint256[]"
        },
        {
          "internalType": "uint256[]",
          "name": "_startTime",
          "type": "uint256[]"
        }
      ],
      "name": "batchClaim",
      "outputs": [],
      "stateMutability": "nonpayable",
      "type": "function"
    },
    {
      "inputs": [
        {
          "internalType": "address",
          "name": "_account",
          "type": "address"
        }
      ],
      "name": "getBatchReward",
      "outputs": [
        {
          "internalType": "uint256",
          "name": "",
          "type": "uint256"
        }
      ],
      "stateMutability": "view",
      "type": "function"
    },
    {
      "inputs": [
        {
          "internalType": "address",
          "name": "_account",
          "type": "address"
        }
      ],
      "name": "getBatchRewardLength",
      "outputs": [
        {
          "internalType": "uint256",
          "name": "",
          "type": "uint256"
        }
      ],
      "stateMutability": "view",
      "type": "function"
    },
    {
      "inputs": [
        {
          "internalType": "address",
          "name": "_account",
          "type": "address"
        }
      ],
      "name": "getBatchClaimList",
      "outputs": [
        {
          "internalType": "uint256[]",
          "name": "",
          "type": "uint256[]"
        }
      ],
      "stateMutability": "view",
      "type": "function"
    },
    {
      "inputs": [
        {
          "internalType": "address",
          "name": "_account",
          "type": "address"
        }
      ],
      "name": "batchClaim2",
      "outputs": [],
      "stateMutability": "nonpayable",
      "type": "function"
    },
    {
      "inputs": [
        {
          "internalType": "uint256",
          "name": "_tokenId",
          "type": "uint256"
        },
        {
          "internalType": "uint256",
          "name": "_start",
          "type": "uint256"
        }
      ],
      "name": "claimReward",
      "outputs": [],
      "stateMutability": "nonpayable",
      "type": "function"
    },
    {
      "inputs": [],
      "name": "checkBlockTime",
      "outputs": [
        {
          "internalType": "uint256",
          "name": "",
          "type": "uint256"
        }
      ],
      "stateMutability": "view",
      "type": "function"
    },
    {
      "inputs": [
        {
          "internalType": "address",
          "name": "",
          "type": "address"
        },
        {
          "internalType": "address",
          "name": "",
          "type": "address"
        },
        {
          "internalType": "uint256",
          "name": "",
          "type": "uint256"
        },
        {
          "internalType": "uint256",
          "name": "",
          "type": "uint256"
        },
        {
          "internalType": "bytes",
          "name": "",
          "type": "bytes"
        }
      ],
      "name": "onERC1155Received",
      "outputs": [
        {
          "internalType": "bytes4",
          "name": "",
          "type": "bytes4"
        }
      ],
      "stateMutability": "pure",
      "type": "function"
    },
    {
      "inputs": [
        {
          "internalType": "address",
          "name": "",
          "type": "address"
        },
        {
          "internalType": "address",
          "name": "",
          "type": "address"
        },
        {
          "internalType": "uint256[]",
          "name": "",
          "type": "uint256[]"
        },
        {
          "internalType": "uint256[]",
          "name": "",
          "type": "uint256[]"
        },
        {
          "internalType": "bytes",
          "name": "",
          "type": "bytes"
        }
      ],
      "name": "onERC1155BatchReceived",
      "outputs": [
        {
          "internalType": "bytes4",
          "name": "",
          "type": "bytes4"
        }
      ],
      "stateMutability": "pure",
      "type": "function"
    },
    {
      "inputs": [
        {
          "internalType": "bytes4",
          "name": "interfaceID",
          "type": "bytes4"
        }
      ],
      "name": "supportsInterface",
      "outputs": [
        {
          "internalType": "bool",
          "name": "",
          "type": "bool"
        }
      ],
      "stateMutability": "pure",
      "type": "function"
    }
  ],
  "bytecode": "0x60806040523480156200001157600080fd5b506040516200414038038062004140833981810160405281019062000037919062000133565b600160008190555080600160006101000a81548173ffffffffffffffffffffffffffffffffffffffff021916908373ffffffffffffffffffffffffffffffffffffffff16021790555081600260006101000a81548173ffffffffffffffffffffffffffffffffffffffff021916908373ffffffffffffffffffffffffffffffffffffffff16021790555050506200017a565b600080fd5b600073ffffffffffffffffffffffffffffffffffffffff82169050919050565b6000620000fb82620000ce565b9050919050565b6200010d81620000ee565b81146200011957600080fd5b50565b6000815190506200012d8162000102565b92915050565b600080604083850312156200014d576200014c620000c9565b5b60006200015d858286016200011c565b925050602062000170858286016200011c565b9150509250929050565b613fb6806200018a6000396000f3fe608060405234801561001057600080fd5b50600436106101735760003560e01c806381c8d149116100de578063bc197c8111610097578063e627f2db11610071578063e627f2db14610478578063ef6de5d314610496578063f23a6e61146104c6578063fcbf5e04146104f657610173565b8063bc197c81146103fa578063c93bfa681461042a578063dafaab141461044857610173565b806381c8d14914610328578063828622751461035857806386bb8f37146103885780638f325210146103a4578063afb3b8a8146103c2578063b4cd09de146103de57610173565b80633450e100116101305780633450e1001461024c57806341d29e1d1461026a57806347ccca02146102865780634c86259e146102a45780635719dd22146102da57806360a9f6dc146102f857610173565b806301ffc9a714610178578063021527ac146101a85780630e15561a146101c457806318078359146101e25780632b3f7d1c146101fe5780633442a1891461022e575b600080fd5b610192600480360381019061018d9190612b6f565b610514565b60405161019f9190612bb7565b60405180910390f35b6101c260048036038101906101bd9190612c08565b61057e565b005b6101cc61090f565b6040516101d99190612c57565b60405180910390f35b6101fc60048036038101906101f79190612cd7565b610915565b005b61021860048036038101906102139190612c08565b610c8b565b6040516102259190612e45565b60405180910390f35b610236610e75565b6040516102439190612f3e565b60405180910390f35b610254611124565b6040516102619190612c57565b60405180910390f35b610284600480360381019061027f9190612f60565b61112c565b005b61028e61145c565b60405161029b9190613026565b60405180910390f35b6102be60048036038101906102b99190613041565b611482565b6040516102d1979695949392919061307d565b60405180910390f35b6102e2611501565b6040516102ef9190612c57565b60405180910390f35b610312600480360381019061030d9190613118565b61150e565b60405161031f9190612c57565b60405180910390f35b610342600480360381019061033d9190613041565b611662565b60405161034f9190612c57565b60405180910390f35b610372600480360381019061036d9190613041565b61169d565b60405161037f9190612c57565b60405180910390f35b6103a2600480360381019061039d9190612c08565b6116d8565b005b6103ac611a03565b6040516103b99190613166565b60405180910390f35b6103dc60048036038101906103d79190613118565b611a29565b005b6103f860048036038101906103f39190613181565b611f22565b005b610414600480360381019061040f91906132c0565b6121df565b60405161042191906133ab565b60405180910390f35b6104326121f7565b60405161043f9190613503565b60405180910390f35b610462600480360381019061045d9190613118565b61230b565b60405161046f9190612c57565b60405180910390f35b61048061243a565b60405161048d9190612c57565b60405180910390f35b6104b060048036038101906104ab9190613118565b612444565b6040516104bd91906135d4565b60405180910390f35b6104e060048036038101906104db91906135f6565b61267c565b6040516104ed91906133ab565b60405180910390f35b6104fe612692565b60405161050b9190612c57565b60405180910390f35b60007f4e2312e0000000000000000000000000000000000000000000000000000000007bffffffffffffffffffffffffffffffffffffffffffffffffffffffff1916827bffffffffffffffffffffffffffffffffffffffffffffffffffffffff1916149050919050565b610586612735565b6000600480549050905060005b6004805490508110156106945783600482815481106105b5576105b4613690565b5b9060005260206000209060070201600101541480156105f8575082600482815481106105e4576105e3613690565b5b906000526020600020906007020160020154145b801561067457503373ffffffffffffffffffffffffffffffffffffffff166004828154811061062a57610629613690565b5b906000526020600020906007020160000160009054906101000a900473ffffffffffffffffffffffffffffffffffffffff1673ffffffffffffffffffffffffffffffffffffffff16145b1561068157809150610694565b808061068c906136ee565b915050610593565b5060048054905081106106dc576040517f08c379a00000000000000000000000000000000000000000000000000000000081526004016106d390613793565b60405180910390fd5b6000600482815481106106f2576106f1613690565b5b90600052602060002090600702016040518060e00160405290816000820160009054906101000a900473ffffffffffffffffffffffffffffffffffffffff1673ffffffffffffffffffffffffffffffffffffffff1673ffffffffffffffffffffffffffffffffffffffff16815260200160018201548152602001600282015481526020016003820154815260200160048201548152602001600582015481526020016006820160009054906101000a900460ff16151515158152505090506000429050816080015181106107fb576040517f08c379a00000000000000000000000000000000000000000000000000000000081526004016107f2906137ff565b60405180910390fd5b600160009054906101000a900473ffffffffffffffffffffffffffffffffffffffff1673ffffffffffffffffffffffffffffffffffffffff1663f242432a3033856020015186606001516040518563ffffffff1660e01b81526004016108649493929190613856565b600060405180830381600087803b15801561087e57600080fd5b505af1158015610892573d6000803e3d6000fd5b505050508160a00151600360008282546108ac91906138ae565b925050819055507fc486b9458a8637650d84d262414833a5a457bc91ae86b7da110386c8c3fa255b33836020015184606001516040516108ee939291906138e2565b60405180910390a16109008585612784565b50505061090b612a7e565b5050565b60035481565b61091d612735565b600080600090505b85859050811015610b8857600061096e87878481811061094857610947613690565b5b9050602002013586868581811061096257610961613690565b5b90506020020135610c8b565b90503373ffffffffffffffffffffffffffffffffffffffff16816000015173ffffffffffffffffffffffffffffffffffffffff16146109e2576040517f08c379a00000000000000000000000000000000000000000000000000000000081526004016109d990613965565b60405180910390fd5b600015158160c00151151514610a2d576040517f08c379a0000000000000000000000000000000000000000000000000000000008152600401610a24906139d1565b60405180910390fd5b60004290508160800151811015610a79576040517f08c379a0000000000000000000000000000000000000000000000000000000008152600401610a7090613a3d565b60405180910390fd5b60018260c00190151590811515815250508160a0015184610a9a9190613a5d565b9350600160009054906101000a900473ffffffffffffffffffffffffffffffffffffffff1673ffffffffffffffffffffffffffffffffffffffff1663f242432a3033856020015186606001516040518563ffffffff1660e01b8152600401610b059493929190613856565b600060405180830381600087803b158015610b1f57600080fd5b505af1158015610b33573d6000803e3d6000fd5b50505050610b73888885818110610b4d57610b4c613690565b5b90506020020135878786818110610b6757610b66613690565b5b90506020020135612784565b50508080610b80906136ee565b915050610925565b508060036000828254610b9b91906138ae565b92505081905550600260009054906101000a900473ffffffffffffffffffffffffffffffffffffffff1673ffffffffffffffffffffffffffffffffffffffff1663a9059cbb33836040518363ffffffff1660e01b8152600401610bff929190613a91565b6020604051808303816000875af1158015610c1e573d6000803e3d6000fd5b505050506040513d601f19601f82011682018060405250810190610c429190613ae6565b507fd8138f8a3f377c5259ca548e70e4c2de94f129f5a11036a15b69513cba2b426a3382604051610c74929190613a91565b60405180910390a150610c85612a7e565b50505050565b610c93612a9e565b600060048054905011610cdb576040517f08c379a0000000000000000000000000000000000000000000000000000000008152600401610cd290613b5f565b60405180910390fd5b60005b600480549050811015610e33578360048281548110610d0057610cff613690565b5b906000526020600020906007020160010154148015610d4357508260048281548110610d2f57610d2e613690565b5b906000526020600020906007020160020154145b15610e205760048181548110610d5c57610d5b613690565b5b90600052602060002090600702016040518060e00160405290816000820160009054906101000a900473ffffffffffffffffffffffffffffffffffffffff1673ffffffffffffffffffffffffffffffffffffffff1673ffffffffffffffffffffffffffffffffffffffff16815260200160018201548152602001600282015481526020016003820154815260200160048201548152602001600582015481526020016006820160009054906101000a900460ff161515151581525050915050610e6f565b8080610e2b906136ee565b915050610cde565b506040517f08c379a0000000000000000000000000000000000000000000000000000000008152600401610e6690613793565b60405180910390fd5b92915050565b60606000600160009054906101000a900473ffffffffffffffffffffffffffffffffffffffff1673ffffffffffffffffffffffffffffffffffffffff166376f5e9f16040518163ffffffff1660e01b8152600401602060405180830381865afa158015610ee6573d6000803e3d6000fd5b505050506040513d601f19601f82011682018060405250810190610f0a9190613b94565b905060008167ffffffffffffffff811115610f2857610f27613bc1565b5b604051908082528060200260200182016040528015610f6157816020015b610f4e612af3565b815260200190600190039081610f465790505b50905060005b8281101561111b576000600160009054906101000a900473ffffffffffffffffffffffffffffffffffffffff1673ffffffffffffffffffffffffffffffffffffffff1662fdd58e33600185610fbc9190613a5d565b6040518363ffffffff1660e01b8152600401610fd9929190613a91565b602060405180830381865afa158015610ff6573d6000803e3d6000fd5b505050506040513d601f19601f8201168201806040525081019061101a9190613b94565b11156111085760405180604001604052806001836110389190613a5d565b8152602001600160009054906101000a900473ffffffffffffffffffffffffffffffffffffffff1673ffffffffffffffffffffffffffffffffffffffff1662fdd58e336001866110889190613a5d565b6040518363ffffffff1660e01b81526004016110a5929190613a91565b602060405180830381865afa1580156110c2573d6000803e3d6000fd5b505050506040513d601f19601f820116820180604052508101906110e69190613b94565b8152508282815181106110fc576110fb613690565b5b60200260200101819052505b8080611113906136ee565b915050610f67565b50809250505090565b600042905090565b611134612735565b6000600160009054906101000a900473ffffffffffffffffffffffffffffffffffffffff1673ffffffffffffffffffffffffffffffffffffffff1662fdd58e33876040518363ffffffff1660e01b8152600401611192929190613a91565b602060405180830381865afa1580156111af573d6000803e3d6000fd5b505050506040513d601f19601f820116820180604052508101906111d39190613b94565b11611213576040517f08c379a000000000000000000000000000000000000000000000000000000000815260040161120a90613c3c565b60405180910390fd5b60004290506000603c846112279190613c5c565b826112329190613a5d565b9050600061124a606485612a8890919063ffffffff16565b905060006040518060e001604052803373ffffffffffffffffffffffffffffffffffffffff168152602001898152602001858152602001888152602001848152602001838152602001600015158152509050600481908060018154018082558091505060019003906000526020600020906007020160009091909190915060008201518160000160006101000a81548173ffffffffffffffffffffffffffffffffffffffff021916908373ffffffffffffffffffffffffffffffffffffffff1602179055506020820151816001015560408201518160020155606082015181600301556080820151816004015560a0820151816005015560c08201518160060160006101000a81548160ff0219169083151502179055505050600160009054906101000a900473ffffffffffffffffffffffffffffffffffffffff1673ffffffffffffffffffffffffffffffffffffffff1663f242432a33308b8b6040518563ffffffff1660e01b81526004016113c49493929190613856565b600060405180830381600087803b1580156113de57600080fd5b505af11580156113f2573d6000803e3d6000fd5b5050505081600360008282546114089190613a5d565b925050819055507f36b3725f1783bad4ff05b7f4c077c3aa68eeb23a4d054ba189db4d01ac278d39338989604051611442939291906138e2565b60405180910390a150505050611456612a7e565b50505050565b600160009054906101000a900473ffffffffffffffffffffffffffffffffffffffff1681565b6004818154811061149257600080fd5b90600052602060002090600702016000915090508060000160009054906101000a900473ffffffffffffffffffffffffffffffffffffffff16908060010154908060020154908060030154908060040154908060050154908060060160009054906101000a900460ff16905087565b6000600480549050905090565b6000806000905060005b600480549050811015611658578373ffffffffffffffffffffffffffffffffffffffff16600482815481106115505761154f613690565b5b906000526020600020906007020160000160009054906101000a900473ffffffffffffffffffffffffffffffffffffffff1673ffffffffffffffffffffffffffffffffffffffff161480156115ca5750600481815481106115b4576115b3613690565b5b9060005260206000209060070201600401544210155b801561160c575060001515600482815481106115e9576115e8613690565b5b906000526020600020906007020160060160009054906101000a900460ff161515145b15611645576004818154811061162557611624613690565b5b906000526020600020906007020160050154826116429190613a5d565b91505b8080611650906136ee565b915050611518565b5080915050919050565b6000600460018361167391906138ae565b8154811061168457611683613690565b5b9060005260206000209060070201600201549050919050565b600060046001836116ae91906138ae565b815481106116bf576116be613690565b5b9060005260206000209060070201600401549050919050565b6116e0612735565b60006116ec8383610c8b565b90503373ffffffffffffffffffffffffffffffffffffffff16816000015173ffffffffffffffffffffffffffffffffffffffff1614611760576040517f08c379a000000000000000000000000000000000000000000000000000000000815260040161175790613965565b60405180910390fd5b600015158160c001511515146117ab576040517f08c379a00000000000000000000000000000000000000000000000000000000081526004016117a2906139d1565b60405180910390fd5b600042905081608001518110156117f7576040517f08c379a00000000000000000000000000000000000000000000000000000000081526004016117ee90613a3d565b60405180910390fd5b60008260a00151905060018360c0019015159081151581525050806003600082825461182391906138ae565b92505081905550600260009054906101000a900473ffffffffffffffffffffffffffffffffffffffff1673ffffffffffffffffffffffffffffffffffffffff1663a9059cbb33836040518363ffffffff1660e01b8152600401611887929190613a91565b6020604051808303816000875af11580156118a6573d6000803e3d6000fd5b505050506040513d601f19601f820116820180604052508101906118ca9190613ae6565b50600160009054906101000a900473ffffffffffffffffffffffffffffffffffffffff1673ffffffffffffffffffffffffffffffffffffffff1663f242432a3033866020015187606001516040518563ffffffff1660e01b81526004016119349493929190613856565b600060405180830381600087803b15801561194e57600080fd5b505af1158015611962573d6000803e3d6000fd5b5050505061197883602001518460400151612784565b7fd8138f8a3f377c5259ca548e70e4c2de94f129f5a11036a15b69513cba2b426a33826040516119a9929190613a91565b60405180910390a17f36b3725f1783bad4ff05b7f4c077c3aa68eeb23a4d054ba189db4d01ac278d3933846020015185606001516040516119ec939291906138e2565b60405180910390a15050506119ff612a7e565b5050565b600260009054906101000a900473ffffffffffffffffffffffffffffffffffffffff1681565b611a31612735565b600080611a3d8361230b565b905060008167ffffffffffffffff811115611a5b57611a5a613bc1565b5b604051908082528060200260200182016040528015611a895781602001602082028036833780820191505090505b50905060008267ffffffffffffffff811115611aa857611aa7613bc1565b5b604051908082528060200260200182016040528015611ad65781602001602082028036833780820191505090505b50905060008367ffffffffffffffff811115611af557611af4613bc1565b5b604051908082528060200260200182016040528015611b235781602001602082028036833780820191505090505b5090506000805b600480549050811015611d2d578773ffffffffffffffffffffffffffffffffffffffff1660048281548110611b6257611b61613690565b5b906000526020600020906007020160000160009054906101000a900473ffffffffffffffffffffffffffffffffffffffff1673ffffffffffffffffffffffffffffffffffffffff16148015611bdc575060048181548110611bc657611bc5613690565b5b9060005260206000209060070201600401544210155b8015611c1e57506000151560048281548110611bfb57611bfa613690565b5b906000526020600020906007020160060160009054906101000a900460ff161515145b15611d1a576000611c7960048381548110611c3c57611c3b613690565b5b90600052602060002090600702016001015460048481548110611c6257611c61613690565b5b906000526020600020906007020160020154610c8b565b90508060a0015188611c8b9190613a5d565b975060018160c00190151590811515815250508060200151868481518110611cb657611cb5613690565b5b6020026020010181815250508060600151858481518110611cda57611cd9613690565b5b6020026020010181815250508060400151848481518110611cfe57611cfd613690565b5b6020026020010181815250508280611d15906136ee565b935050505b8080611d25906136ee565b915050611b2a565b5060005b85811015611d8a57611d77858281518110611d4f57611d4e613690565b5b6020026020010151848381518110611d6a57611d69613690565b5b6020026020010151612784565b8080611d82906136ee565b915050611d31565b508560036000828254611d9d91906138ae565b92505081905550600160009054906101000a900473ffffffffffffffffffffffffffffffffffffffff1673ffffffffffffffffffffffffffffffffffffffff16632eb2c2d6303387876040518563ffffffff1660e01b8152600401611e059493929190613c9e565b600060405180830381600087803b158015611e1f57600080fd5b505af1158015611e33573d6000803e3d6000fd5b50505050600260009054906101000a900473ffffffffffffffffffffffffffffffffffffffff1673ffffffffffffffffffffffffffffffffffffffff1663a9059cbb33886040518363ffffffff1660e01b8152600401611e94929190613a91565b6020604051808303816000875af1158015611eb3573d6000803e3d6000fd5b505050506040513d601f19601f82011682018060405250810190611ed79190613ae6565b507fd8138f8a3f377c5259ca548e70e4c2de94f129f5a11036a15b69513cba2b426a3387604051611f09929190613a91565b60405180910390a1505050505050611f1f612a7e565b50565b611f2a612735565b600042905060005b898990508110156121345760006040518060e001604052803373ffffffffffffffffffffffffffffffffffffffff1681526020018c8c85818110611f7957611f78613690565b5b9050602002013581526020018481526020018a8a85818110611f9e57611f9d613690565b5b905060200201358152602001603c898986818110611fbf57611fbe613690565b5b90506020020135611fd09190613c5c565b85611fdb9190613a5d565b815260200161200d6064888887818110611ff857611ff7613690565b5b90506020020135612a8890919063ffffffff16565b815260200160001515815250905060648585848181106120305761202f613690565b5b905060200201356120419190613d33565b600360008282546120529190613a5d565b92505081905550600481908060018154018082558091505060019003906000526020600020906007020160009091909190915060008201518160000160006101000a81548173ffffffffffffffffffffffffffffffffffffffff021916908373ffffffffffffffffffffffffffffffffffffffff1602179055506020820151816001015560408201518160020155606082015181600301556080820151816004015560a0820151816005015560c08201518160060160006101000a81548160ff021916908315150217905550505050808061212c906136ee565b915050611f32565b50600160009054906101000a900473ffffffffffffffffffffffffffffffffffffffff1673ffffffffffffffffffffffffffffffffffffffff16632eb2c2d633308c8c8c8c6040518763ffffffff1660e01b815260040161219a96959493929190613dce565b600060405180830381600087803b1580156121b457600080fd5b505af11580156121c8573d6000803e3d6000fd5b50505050506121d5612a7e565b5050505050505050565b600063bc197c8160e01b905098975050505050505050565b606060006004805490501161220b57600080fd5b6004805480602002602001604051908101604052809291908181526020016000905b8282101561230257838290600052602060002090600702016040518060e00160405290816000820160009054906101000a900473ffffffffffffffffffffffffffffffffffffffff1673ffffffffffffffffffffffffffffffffffffffff1673ffffffffffffffffffffffffffffffffffffffff16815260200160018201548152602001600282015481526020016003820154815260200160048201548152602001600582015481526020016006820160009054906101000a900460ff1615151515815250508152602001906001019061222d565b50505050905090565b6000806000905060005b600480549050811015612430578373ffffffffffffffffffffffffffffffffffffffff166004828154811061234d5761234c613690565b5b906000526020600020906007020160000160009054906101000a900473ffffffffffffffffffffffffffffffffffffffff1673ffffffffffffffffffffffffffffffffffffffff161480156123c75750600481815481106123b1576123b0613690565b5b9060005260206000209060070201600401544210155b8015612409575060001515600482815481106123e6576123e5613690565b5b906000526020600020906007020160060160009054906101000a900460ff161515145b1561241d578180612419906136ee565b9250505b8080612428906136ee565b915050612315565b5080915050919050565b6000600354905090565b6060600060026124538461230b565b61245d9190613c5c565b67ffffffffffffffff81111561247657612475613bc1565b5b6040519080825280602002602001820160405280156124a45781602001602082028036833780820191505090505b5090506000805b600480549050811015612671578473ffffffffffffffffffffffffffffffffffffffff16600482815481106124e3576124e2613690565b5b906000526020600020906007020160000160009054906101000a900473ffffffffffffffffffffffffffffffffffffffff1673ffffffffffffffffffffffffffffffffffffffff1614801561255d57506004818154811061254757612546613690565b5b9060005260206000209060070201600401544210155b801561259f5750600015156004828154811061257c5761257b613690565b5b906000526020600020906007020160060160009054906101000a900460ff161515145b1561265e5760006125fa600483815481106125bd576125bc613690565b5b906000526020600020906007020160010154600484815481106125e3576125e2613690565b5b906000526020600020906007020160020154610c8b565b9050806020015184848061260d906136ee565b9550815181106126205761261f613690565b5b602002602001018181525050806040015184848061263d906136ee565b9550815181106126505761264f613690565b5b602002602001018181525050505b8080612669906136ee565b9150506124ab565b508192505050919050565b600063f23a6e6160e01b90509695505050505050565b6000600260009054906101000a900473ffffffffffffffffffffffffffffffffffffffff1673ffffffffffffffffffffffffffffffffffffffff166370a08231306040518263ffffffff1660e01b81526004016126ef9190613e38565b602060405180830381865afa15801561270c573d6000803e3d6000fd5b505050506040513d601f19601f820116820180604052508101906127309190613b94565b905090565b60026000540361277a576040517f08c379a000000000000000000000000000000000000000000000000000000000815260040161277190613e9f565b60405180910390fd5b6002600081905550565b60005b600480549050811015612a3e5782600482815481106127a9576127a8613690565b5b9060005260206000209060070201600101541480156127ec575081600482815481106127d8576127d7613690565b5b906000526020600020906007020160020154145b15612a2b576004818154811061280557612804613690565b5b9060005260206000209060070201600080820160006101000a81549073ffffffffffffffffffffffffffffffffffffffff0219169055600182016000905560028201600090556003820160009055600482016000905560058201600090556006820160006101000a81549060ff021916905550506004600160048054905061288d91906138ae565b8154811061289e5761289d613690565b5b9060005260206000209060070201600482815481106128c0576128bf613690565b5b90600052602060002090600702016000820160009054906101000a900473ffffffffffffffffffffffffffffffffffffffff168160000160006101000a81548173ffffffffffffffffffffffffffffffffffffffff021916908373ffffffffffffffffffffffffffffffffffffffff16021790555060018201548160010155600282015481600201556003820154816003015560048201548160040155600582015481600501556006820160009054906101000a900460ff168160060160006101000a81548160ff02191690831515021790555090505060048054806129a9576129a8613ebf565b5b6001900381819060005260206000209060070201600080820160006101000a81549073ffffffffffffffffffffffffffffffffffffffff0219169055600182016000905560028201600090556003820160009055600482016000905560058201600090556006820160006101000a81549060ff02191690555050905550612a7a565b8080612a36906136ee565b915050612787565b506040517f08c379a0000000000000000000000000000000000000000000000000000000008152600401612a7190613f60565b60405180910390fd5b5050565b6001600081905550565b60008183612a969190613d33565b905092915050565b6040518060e00160405280600073ffffffffffffffffffffffffffffffffffffffff16815260200160008152602001600081526020016000815260200160008152602001600081526020016000151581525090565b604051806040016040528060008152602001600081525090565b600080fd5b600080fd5b60007fffffffff0000000000000000000000000000000000000000000000000000000082169050919050565b612b4c81612b17565b8114612b5757600080fd5b50565b600081359050612b6981612b43565b92915050565b600060208284031215612b8557612b84612b0d565b5b6000612b9384828501612b5a565b91505092915050565b60008115159050919050565b612bb181612b9c565b82525050565b6000602082019050612bcc6000830184612ba8565b92915050565b6000819050919050565b612be581612bd2565b8114612bf057600080fd5b50565b600081359050612c0281612bdc565b92915050565b60008060408385031215612c1f57612c1e612b0d565b5b6000612c2d85828601612bf3565b9250506020612c3e85828601612bf3565b9150509250929050565b612c5181612bd2565b82525050565b6000602082019050612c6c6000830184612c48565b92915050565b600080fd5b600080fd5b600080fd5b60008083601f840112612c9757612c96612c72565b5b8235905067ffffffffffffffff811115612cb457612cb3612c77565b5b602083019150836020820283011115612cd057612ccf612c7c565b5b9250929050565b60008060008060408587031215612cf157612cf0612b0d565b5b600085013567ffffffffffffffff811115612d0f57612d0e612b12565b5b612d1b87828801612c81565b9450945050602085013567ffffffffffffffff811115612d3e57612d3d612b12565b5b612d4a87828801612c81565b925092505092959194509250565b600073ffffffffffffffffffffffffffffffffffffffff82169050919050565b6000612d8382612d58565b9050919050565b612d9381612d78565b82525050565b612da281612bd2565b82525050565b612db181612b9c565b82525050565b60e082016000820151612dcd6000850182612d8a565b506020820151612de06020850182612d99565b506040820151612df36040850182612d99565b506060820151612e066060850182612d99565b506080820151612e196080850182612d99565b5060a0820151612e2c60a0850182612d99565b5060c0820151612e3f60c0850182612da8565b50505050565b600060e082019050612e5a6000830184612db7565b92915050565b600081519050919050565b600082825260208201905092915050565b6000819050602082019050919050565b604082016000820151612ea26000850182612d99565b506020820151612eb56020850182612d99565b50505050565b6000612ec78383612e8c565b60408301905092915050565b6000602082019050919050565b6000612eeb82612e60565b612ef58185612e6b565b9350612f0083612e7c565b8060005b83811015612f31578151612f188882612ebb565b9750612f2383612ed3565b925050600181019050612f04565b5085935050505092915050565b60006020820190508181036000830152612f588184612ee0565b905092915050565b60008060008060808587031215612f7a57612f79612b0d565b5b6000612f8887828801612bf3565b9450506020612f9987828801612bf3565b9350506040612faa87828801612bf3565b9250506060612fbb87828801612bf3565b91505092959194509250565b6000819050919050565b6000612fec612fe7612fe284612d58565b612fc7565b612d58565b9050919050565b6000612ffe82612fd1565b9050919050565b600061301082612ff3565b9050919050565b61302081613005565b82525050565b600060208201905061303b6000830184613017565b92915050565b60006020828403121561305757613056612b0d565b5b600061306584828501612bf3565b91505092915050565b61307781612d78565b82525050565b600060e082019050613092600083018a61306e565b61309f6020830189612c48565b6130ac6040830188612c48565b6130b96060830187612c48565b6130c66080830186612c48565b6130d360a0830185612c48565b6130e060c0830184612ba8565b98975050505050505050565b6130f581612d78565b811461310057600080fd5b50565b600081359050613112816130ec565b92915050565b60006020828403121561312e5761312d612b0d565b5b600061313c84828501613103565b91505092915050565b600061315082612ff3565b9050919050565b61316081613145565b82525050565b600060208201905061317b6000830184613157565b92915050565b6000806000806000806000806080898b0312156131a1576131a0612b0d565b5b600089013567ffffffffffffffff8111156131bf576131be612b12565b5b6131cb8b828c01612c81565b9850985050602089013567ffffffffffffffff8111156131ee576131ed612b12565b5b6131fa8b828c01612c81565b9650965050604089013567ffffffffffffffff81111561321d5761321c612b12565b5b6132298b828c01612c81565b9450945050606089013567ffffffffffffffff81111561324c5761324b612b12565b5b6132588b828c01612c81565b92509250509295985092959890939650565b60008083601f8401126132805761327f612c72565b5b8235905067ffffffffffffffff81111561329d5761329c612c77565b5b6020830191508360018202830111156132b9576132b8612c7c565b5b9250929050565b60008060008060008060008060a0898b0312156132e0576132df612b0d565b5b60006132ee8b828c01613103565b98505060206132ff8b828c01613103565b975050604089013567ffffffffffffffff8111156133205761331f612b12565b5b61332c8b828c01612c81565b9650965050606089013567ffffffffffffffff81111561334f5761334e612b12565b5b61335b8b828c01612c81565b9450945050608089013567ffffffffffffffff81111561337e5761337d612b12565b5b61338a8b828c0161326a565b92509250509295985092959890939650565b6133a581612b17565b82525050565b60006020820190506133c0600083018461339c565b92915050565b600081519050919050565b600082825260208201905092915050565b6000819050602082019050919050565b60e0820160008201516134086000850182612d8a565b50602082015161341b6020850182612d99565b50604082015161342e6040850182612d99565b5060608201516134416060850182612d99565b5060808201516134546080850182612d99565b5060a082015161346760a0850182612d99565b5060c082015161347a60c0850182612da8565b50505050565b600061348c83836133f2565b60e08301905092915050565b6000602082019050919050565b60006134b0826133c6565b6134ba81856133d1565b93506134c5836133e2565b8060005b838110156134f65781516134dd8882613480565b97506134e883613498565b9250506001810190506134c9565b5085935050505092915050565b6000602082019050818103600083015261351d81846134a5565b905092915050565b600081519050919050565b600082825260208201905092915050565b6000819050602082019050919050565b600061355d8383612d99565b60208301905092915050565b6000602082019050919050565b600061358182613525565b61358b8185613530565b935061359683613541565b8060005b838110156135c75781516135ae8882613551565b97506135b983613569565b92505060018101905061359a565b5085935050505092915050565b600060208201905081810360008301526135ee8184613576565b905092915050565b60008060008060008060a0878903121561361357613612612b0d565b5b600061362189828a01613103565b965050602061363289828a01613103565b955050604061364389828a01612bf3565b945050606061365489828a01612bf3565b935050608087013567ffffffffffffffff81111561367557613674612b12565b5b61368189828a0161326a565b92509250509295509295509295565b7f4e487b7100000000000000000000000000000000000000000000000000000000600052603260045260246000fd5b7f4e487b7100000000000000000000000000000000000000000000000000000000600052601160045260246000fd5b60006136f982612bd2565b91507fffffffffffffffffffffffffffffffffffffffffffffffffffffffffffffffff820361372b5761372a6136bf565b5b600182019050919050565b600082825260208201905092915050565b7f5374616b65206e6f7420666f756e640000000000000000000000000000000000600082015250565b600061377d600f83613736565b915061378882613747565b602082019050919050565b600060208201905081810360008301526137ac81613770565b9050919050565b7f5374616b6520706572696f6420616c726561647920656e646564000000000000600082015250565b60006137e9601a83613736565b91506137f4826137b3565b602082019050919050565b60006020820190508181036000830152613818816137dc565b9050919050565b600082825260208201905092915050565b50565b600061384060008361381f565b915061384b82613830565b600082019050919050565b600060a08201905061386b600083018761306e565b613878602083018661306e565b6138856040830185612c48565b6138926060830184612c48565b81810360808301526138a381613833565b905095945050505050565b60006138b982612bd2565b91506138c483612bd2565b92508282039050818111156138dc576138db6136bf565b5b92915050565b60006060820190506138f7600083018661306e565b6139046020830185612c48565b6139116040830184612c48565b949350505050565b7f4e6f7420746865206f776e6572206f6620746865207374616b65000000000000600082015250565b600061394f601a83613736565b915061395a82613919565b602082019050919050565b6000602082019050818103600083015261397e81613942565b9050919050565b7f52657761726420616c726561647920636c61696d656400000000000000000000600082015250565b60006139bb601683613736565b91506139c682613985565b602082019050919050565b600060208201905081810360008301526139ea816139ae565b9050919050565b7f5374616b6520706572696f6420686173206e6f7420656e646564207965740000600082015250565b6000613a27601e83613736565b9150613a32826139f1565b602082019050919050565b60006020820190508181036000830152613a5681613a1a565b9050919050565b6000613a6882612bd2565b9150613a7383612bd2565b9250828201905080821115613a8b57613a8a6136bf565b5b92915050565b6000604082019050613aa6600083018561306e565b613ab36020830184612c48565b9392505050565b613ac381612b9c565b8114613ace57600080fd5b50565b600081519050613ae081613aba565b92915050565b600060208284031215613afc57613afb612b0d565b5b6000613b0a84828501613ad1565b91505092915050565b7f4e6f207374616b657320666f756e640000000000000000000000000000000000600082015250565b6000613b49600f83613736565b9150613b5482613b13565b602082019050919050565b60006020820190508181036000830152613b7881613b3c565b9050919050565b600081519050613b8e81612bdc565b92915050565b600060208284031215613baa57613ba9612b0d565b5b6000613bb884828501613b7f565b91505092915050565b7f4e487b7100000000000000000000000000000000000000000000000000000000600052604160045260246000fd5b7f4e6f7420746865206f776e6572206f6620746865204e46540000000000000000600082015250565b6000613c26601883613736565b9150613c3182613bf0565b602082019050919050565b60006020820190508181036000830152613c5581613c19565b9050919050565b6000613c6782612bd2565b9150613c7283612bd2565b9250828202613c8081612bd2565b91508282048414831517613c9757613c966136bf565b5b5092915050565b600060a082019050613cb3600083018761306e565b613cc0602083018661306e565b8181036040830152613cd28185613576565b90508181036060830152613ce68184613576565b90508181036080830152613cf981613833565b905095945050505050565b7f4e487b7100000000000000000000000000000000000000000000000000000000600052601260045260246000fd5b6000613d3e82612bd2565b9150613d4983612bd2565b925082613d5957613d58613d04565b5b828204905092915050565b600080fd5b82818337505050565b6000613d7e8385613530565b93507f07ffffffffffffffffffffffffffffffffffffffffffffffffffffffffffffff831115613db157613db0613d64565b5b602083029250613dc2838584613d69565b82840190509392505050565b600060a082019050613de3600083018961306e565b613df0602083018861306e565b8181036040830152613e03818688613d72565b90508181036060830152613e18818486613d72565b90508181036080830152613e2b81613833565b9050979650505050505050565b6000602082019050613e4d600083018461306e565b92915050565b7f5265656e7472616e637947756172643a207265656e7472616e742063616c6c00600082015250565b6000613e89601f83613736565b9150613e9482613e53565b602082019050919050565b60006020820190508181036000830152613eb881613e7c565b9050919050565b7f4e487b7100000000000000000000000000000000000000000000000000000000600052603160045260246000fd5b7f5374616b65206e6f7420666f756e6420666f722074686520676976656e20746f60008201527f6b656e2049440000000000000000000000000000000000000000000000000000602082015250565b6000613f4a602683613736565b9150613f5582613eee565b604082019050919050565b60006020820190508181036000830152613f7981613f3d565b905091905056fea264697066735822122026ab3ad91e530f90a1490718d7e17e3031655423be77637f2ebcc77a67e96a1464736f6c63430008130033",
  "immutableReferences": {},
  "source": "//SPDX-License-Identifier: MIT\r\npragma solidity ^0.8.19;\r\n\r\nimport '../contracts/HutToken.sol';\r\nimport '../contracts/WinenwinToken.sol';\r\nimport '../node_modules/@openzeppelin/contracts/utils/math/SafeMath.sol';\r\nimport '../node_modules/@openzeppelin/contracts/token/ERC1155/IERC1155Receiver.sol';\r\nimport '../node_modules/@openzeppelin/contracts/security/ReentrancyGuard.sol';\r\n\r\ncontract StakingNFT is IERC1155Receiver, ReentrancyGuard {\r\n    using SafeMath for uint256;\r\n\r\n    WinenwinToken public nft;\r\n    HutToken public hutToken;\r\n\r\n    struct NftInfo {\r\n        uint256 tokenId;\r\n        uint256 amount;\r\n    }\r\n\r\n    struct StakeItem {\r\n        address owner;\r\n        uint256 tokenId;\r\n        uint256 start;\r\n        uint256 amount;\r\n        uint256 deadline;\r\n        uint256 reward;\r\n        bool isClaimed;\r\n    }\r\n\r\n    uint256 public totalRewards;\r\n    StakeItem[] public stakeList;\r\n\r\n    event NFTStaked(address _owner, uint256 _tokenId, uint _amount);\r\n    event NFTUnstaked(address _owner, uint256 _tokenId, uint _amount);\r\n    event Claimed(address _owner, uint256 amount);\r\n\r\n    constructor(address _HutTokenAddress, address _nftAddress) {\r\n        nft = WinenwinToken(_nftAddress);\r\n        hutToken = HutToken(_HutTokenAddress);\r\n    }\r\n\r\n    function staking(uint256 _tokenId, uint256 _amount, uint256 _duration, uint256 _reward) public nonReentrant {\r\n        require(nft.balanceOf(msg.sender, _tokenId) > 0, 'Not the owner of the NFT');\r\n\r\n        uint256 start = block.timestamp;\r\n        uint256 deadline = start + _duration * 1 minutes;\r\n        uint256 reward = _reward.div(100);\r\n\r\n        StakeItem memory stake = StakeItem(msg.sender, _tokenId, start, _amount, deadline, reward, false);\r\n\r\n        stakeList.push(stake);\r\n        nft.safeTransferFrom(msg.sender, address(this), _tokenId, _amount, '');\r\n\r\n        totalRewards += reward;\r\n\r\n        emit NFTStaked(msg.sender, _tokenId, _amount);\r\n    }\r\n\r\n    function stakingBatch(\r\n        uint256[] calldata _tokenIds,\r\n        uint256[] calldata _amounts,\r\n        uint256[] calldata _durations,\r\n        uint256[] calldata _rewards\r\n    ) public nonReentrant {\r\n        uint256 start = block.timestamp;\r\n        for (uint256 i = 0; i < _tokenIds.length; i++) {\r\n            StakeItem memory stake = StakeItem(\r\n                msg.sender,\r\n                _tokenIds[i],\r\n                start,\r\n                _amounts[i],\r\n                start + _durations[i] * 1 minutes,\r\n                _rewards[i].div(100),\r\n                false\r\n            );\r\n            totalRewards += _rewards[i] / 100;\r\n            stakeList.push(stake);\r\n        }\r\n        nft.safeBatchTransferFrom(msg.sender, address(this), _tokenIds, _amounts, '');\r\n    }\r\n\r\n    function unStaking(uint256 _tokenId, uint256 _start) public nonReentrant {\r\n        uint256 index = stakeList.length;\r\n        for (uint256 i = 0; i < stakeList.length; i++) {\r\n            if (stakeList[i].tokenId == _tokenId && stakeList[i].start == _start && stakeList[i].owner == msg.sender) {\r\n                index = i;\r\n                break;\r\n            }\r\n        }\r\n        require(index < stakeList.length, 'Stake not found');\r\n        StakeItem memory stake = stakeList[index];\r\n        uint256 elapsed = block.timestamp;\r\n        require(elapsed < stake.deadline, 'Stake period already ended');\r\n\r\n        nft.safeTransferFrom(address(this), msg.sender, stake.tokenId, stake.amount, '');\r\n\r\n        totalRewards -= stake.reward;\r\n        emit NFTUnstaked(msg.sender, stake.tokenId, stake.amount);\r\n        popStake(_tokenId, _start);\r\n    }\r\n\r\n    function popStake(uint256 _tokenId, uint256 _start) internal {\r\n        for (uint256 i = 0; i < stakeList.length; i++) {\r\n            if (stakeList[i].tokenId == _tokenId && stakeList[i].start == _start) {\r\n                delete stakeList[i];\r\n                stakeList[i] = stakeList[stakeList.length - 1];\r\n                stakeList.pop();\r\n                return;\r\n            }\r\n        }\r\n        revert('Stake not found for the given token ID');\r\n    }\r\n\r\n    function getStakeInfo(uint256 _tokenId, uint256 _start) public view returns (StakeItem memory) {\r\n        require(stakeList.length > 0, 'No stakes found');\r\n        for (uint256 i = 0; i < stakeList.length; i++) {\r\n            if (stakeList[i].tokenId == _tokenId && stakeList[i].start == _start) {\r\n                return stakeList[i];\r\n            }\r\n        }\r\n        revert('Stake not found');\r\n    }\r\n\r\n    function getHutToken() external view returns (uint tokenAmount) {\r\n        return hutToken.balanceOf(address(this));\r\n    }\r\n\r\n    function getTotalRewards() external view returns (uint) {\r\n        return totalRewards;\r\n    }\r\n\r\n    function getStakingList() external view returns (StakeItem[] memory) {\r\n        require(stakeList.length > 0);\r\n        return stakeList;\r\n    }\r\n\r\n    function getTokenListLength() external view returns (uint256) {\r\n        return stakeList.length;\r\n    }\r\n\r\n    function getStakeTime(uint256 _stakeListLength) external view returns (uint256) {\r\n        return stakeList[_stakeListLength - 1].start;\r\n    }\r\n\r\n    function getDeadline(uint256 _stakeListLength) external view returns (uint256) {\r\n        return stakeList[_stakeListLength - 1].deadline;\r\n    }\r\n\r\n    function getOwnerTokenList() external view returns (NftInfo[] memory) {\r\n        uint256 balance = nft.getNftAmount();\r\n        NftInfo[] memory list = new NftInfo[](balance);\r\n        for (uint256 i = 0; i < balance; i++) {\r\n            if (nft.balanceOf(msg.sender, i + 1) > 0) {\r\n                list[i] = NftInfo(i + 1, nft.balanceOf(msg.sender, i + 1));\r\n            }\r\n        }\r\n        return list;\r\n    }\r\n\r\n    function batchClaim(uint256[] calldata _tokenIds, uint256[] calldata _startTime) public nonReentrant {\r\n        uint256 tempRewards;\r\n        for (uint i = 0; i < _tokenIds.length; i++) {\r\n            StakeItem memory stake = getStakeInfo(_tokenIds[i], _startTime[i]);\r\n            require(stake.owner == msg.sender, 'Not the owner of the stake');\r\n            require(stake.isClaimed == false, 'Reward already claimed');\r\n            uint256 elapsed = block.timestamp;\r\n            require(elapsed >= stake.deadline, 'Stake period has not ended yet');\r\n            stake.isClaimed = true;\r\n            tempRewards += stake.reward;\r\n            nft.safeTransferFrom(address(this), msg.sender, stake.tokenId, stake.amount, '');\r\n            popStake(_tokenIds[i], _startTime[i]);\r\n        }\r\n        totalRewards -= tempRewards;\r\n        hutToken.transfer(msg.sender, tempRewards);\r\n        emit Claimed(msg.sender, tempRewards);\r\n    }\r\n\r\n    function getBatchReward(address _account) external view returns (uint256) {\r\n        uint256 batchReward = 0;\r\n        for (uint256 i = 0; i < stakeList.length; i++) {\r\n            if (\r\n                stakeList[i].owner == _account &&\r\n                block.timestamp >= stakeList[i].deadline &&\r\n                stakeList[i].isClaimed == false\r\n            ) {\r\n                batchReward += stakeList[i].reward;\r\n            }\r\n        }\r\n        return batchReward;\r\n    }\r\n\r\n    function getBatchRewardLength(address _account) public view returns (uint256) {\r\n        uint256 batchRewardLength = 0;\r\n        for (uint256 i = 0; i < stakeList.length; i++) {\r\n            if (\r\n                stakeList[i].owner == _account &&\r\n                block.timestamp >= stakeList[i].deadline &&\r\n                stakeList[i].isClaimed == false\r\n            ) {\r\n                batchRewardLength++;\r\n            }\r\n        }\r\n        return batchRewardLength;\r\n    }\r\n\r\n    function getBatchClaimList(address _account) external view returns (uint256[] memory) {\r\n        uint256[] memory claimableList = new uint256[](getBatchRewardLength(_account) * 2);\r\n        uint256 j = 0;\r\n        for (uint256 i = 0; i < stakeList.length; i++) {\r\n            if (\r\n                stakeList[i].owner == _account &&\r\n                block.timestamp >= stakeList[i].deadline &&\r\n                stakeList[i].isClaimed == false\r\n            ) {\r\n                StakeItem memory stake = getStakeInfo(stakeList[i].tokenId, stakeList[i].start);\r\n                claimableList[j++] = stake.tokenId;\r\n                claimableList[j++] = stake.start;\r\n            }\r\n        }\r\n        return claimableList;\r\n    }\r\n\r\n    function batchClaim2(address _account) public nonReentrant {\r\n        uint256 tempReward;\r\n        uint256 tempLength = getBatchRewardLength(_account);\r\n        uint256[] memory ids = new uint256[](tempLength);\r\n        uint256[] memory amounts = new uint256[](tempLength);\r\n        uint256[] memory startTimes = new uint256[](tempLength);\r\n        uint256 j = 0;\r\n        for (uint256 i = 0; i < stakeList.length; i++) {\r\n            if (\r\n                stakeList[i].owner == _account &&\r\n                block.timestamp >= stakeList[i].deadline &&\r\n                stakeList[i].isClaimed == false\r\n            ) {\r\n                StakeItem memory stake = getStakeInfo(stakeList[i].tokenId, stakeList[i].start);\r\n                tempReward += stake.reward;\r\n                stake.isClaimed = true;\r\n                ids[j] = stake.tokenId;\r\n                amounts[j] = stake.amount;\r\n                startTimes[j] = stake.start;\r\n                j++;\r\n            }\r\n        }\r\n        for (uint256 i = 0; i < tempLength; i++) {\r\n            popStake(ids[i], startTimes[i]);\r\n        }\r\n        totalRewards -= tempReward;\r\n        nft.safeBatchTransferFrom(address(this), msg.sender, ids, amounts, '');\r\n        hutToken.transfer(msg.sender, tempReward);\r\n        emit Claimed(msg.sender, tempReward);\r\n    }\r\n\r\n    function claimReward(uint256 _tokenId, uint256 _start) public nonReentrant {\r\n        StakeItem memory stake = getStakeInfo(_tokenId, _start);\r\n\r\n        require(stake.owner == msg.sender, 'Not the owner of the stake');\r\n        require(stake.isClaimed == false, 'Reward already claimed');\r\n\r\n        uint256 elapsed = block.timestamp;\r\n        require(elapsed >= stake.deadline, 'Stake period has not ended yet');\r\n\r\n        uint256 reward = stake.reward;\r\n        stake.isClaimed = true;\r\n        totalRewards -= reward;\r\n\r\n        hutToken.transfer(msg.sender, reward);\r\n        nft.safeTransferFrom(address(this), msg.sender, stake.tokenId, stake.amount, '');\r\n        popStake(stake.tokenId, stake.start);\r\n\r\n        emit Claimed(msg.sender, reward);\r\n        emit NFTStaked(msg.sender, stake.tokenId, stake.amount);\r\n    }\r\n\r\n    function checkBlockTime() external view returns (uint256) {\r\n        return block.timestamp;\r\n    }\r\n\r\n    function onERC1155Received(address, address, uint256, uint256, bytes calldata) public pure returns (bytes4) {\r\n        return this.onERC1155Received.selector;\r\n    }\r\n\r\n    function onERC1155BatchReceived(\r\n        address,\r\n        address,\r\n        uint256[] calldata,\r\n        uint256[] calldata,\r\n        bytes calldata\r\n    ) public pure returns (bytes4) {\r\n        return this.onERC1155BatchReceived.selector;\r\n    }\r\n\r\n    function supportsInterface(bytes4 interfaceID) external pure returns (bool) {\r\n        return interfaceID == type(IERC1155Receiver).interfaceId;\r\n    }\r\n}\r\n",
  "sourcePath": "C:\\Users\\effor\\Git\\windex\\server\\contracts\\StakingNFT.sol",
  "compiler": {
    "name": "solc",
    "version": "0.8.19+commit.7dd6d404.Emscripten.clang"
  },
  "schemaVersion": "3.4.13",
  "updatedAt": "2023-05-22T06:10:58.690Z",
  "devdoc": {
    "kind": "dev",
    "methods": {},
    "version": 1
  },
  "userdoc": {
    "kind": "user",
    "methods": {},
    "version": 1
  }
}