{
  "contractName": "Vendor",
  "abi": [
    {
      "inputs": [
        {
          "internalType": "address",
          "name": "_tokenAddress",
          "type": "address"
        }
      ],
      "stateMutability": "nonpayable",
      "type": "constructor"
    },
    {
      "anonymous": false,
      "inputs": [
        {
          "indexed": false,
          "internalType": "address",
          "name": "buyer",
          "type": "address"
        },
        {
          "indexed": false,
          "internalType": "uint256",
          "name": "amountOfMatic",
          "type": "uint256"
        },
        {
          "indexed": false,
          "internalType": "uint256",
          "name": "amountOfTokens",
          "type": "uint256"
        }
      ],
      "name": "BuyTokens",
      "type": "event"
    },
    {
      "anonymous": false,
      "inputs": [
        {
          "indexed": true,
          "internalType": "address",
          "name": "previousOwner",
          "type": "address"
        },
        {
          "indexed": true,
          "internalType": "address",
          "name": "newOwner",
          "type": "address"
        }
      ],
      "name": "OwnershipTransferred",
      "type": "event"
    },
    {
      "anonymous": false,
      "inputs": [
        {
          "indexed": false,
          "internalType": "address",
          "name": "seller",
          "type": "address"
        },
        {
          "indexed": false,
          "internalType": "uint256",
          "name": "amountofTokens",
          "type": "uint256"
        },
        {
          "indexed": false,
          "internalType": "uint256",
          "name": "amountOfMatic",
          "type": "uint256"
        }
      ],
      "name": "SellTokens",
      "type": "event"
    },
    {
      "inputs": [],
      "name": "hutToken",
      "outputs": [
        {
          "internalType": "contract HutToken",
          "name": "",
          "type": "address"
        }
      ],
      "stateMutability": "view",
      "type": "function"
    },
    {
      "inputs": [],
      "name": "owner",
      "outputs": [
        {
          "internalType": "address",
          "name": "",
          "type": "address"
        }
      ],
      "stateMutability": "view",
      "type": "function"
    },
    {
      "inputs": [],
      "name": "renounceOwnership",
      "outputs": [],
      "stateMutability": "nonpayable",
      "type": "function"
    },
    {
      "inputs": [
        {
          "internalType": "address",
          "name": "newOwner",
          "type": "address"
        }
      ],
      "name": "transferOwnership",
      "outputs": [],
      "stateMutability": "nonpayable",
      "type": "function"
    },
    {
      "inputs": [],
      "name": "getHutToken",
      "outputs": [
        {
          "internalType": "uint256",
          "name": "tokenAmount",
          "type": "uint256"
        }
      ],
      "stateMutability": "view",
      "type": "function"
    },
    {
      "inputs": [
        {
          "internalType": "uint256",
          "name": "_rate",
          "type": "uint256"
        }
      ],
      "name": "buyTokens",
      "outputs": [],
      "stateMutability": "payable",
      "type": "function"
    },
    {
      "inputs": [
        {
          "internalType": "uint256",
          "name": "_tokenAmountToSell",
          "type": "uint256"
        },
        {
          "internalType": "uint256",
          "name": "_rate",
          "type": "uint256"
        }
      ],
      "name": "sellTokens",
      "outputs": [],
      "stateMutability": "nonpayable",
      "type": "function"
    },
    {
      "inputs": [],
      "name": "getBalance",
      "outputs": [
        {
          "internalType": "uint256",
          "name": "",
          "type": "uint256"
        }
      ],
      "stateMutability": "view",
      "type": "function"
    },
    {
      "inputs": [
        {
          "internalType": "uint256",
          "name": "_newFeeRate",
          "type": "uint256"
        }
      ],
      "name": "setFeeRate",
      "outputs": [],
      "stateMutability": "nonpayable",
      "type": "function"
    },
    {
      "inputs": [],
      "name": "getFeeRate",
      "outputs": [
        {
          "internalType": "uint256",
          "name": "",
          "type": "uint256"
        }
      ],
      "stateMutability": "view",
      "type": "function"
    },
    {
      "inputs": [
        {
          "internalType": "uint256",
          "name": "_amount",
          "type": "uint256"
        }
      ],
      "name": "withdrawMatic",
      "outputs": [],
      "stateMutability": "nonpayable",
      "type": "function"
    }
  ],
  "bytecode": "0x6080604052600380553480156200001557600080fd5b5060405162001cd238038062001cd283398181016040528101906200003b91906200021a565b6200005b6200004f620000e460201b60201c565b620000ec60201b60201c565b33600260006101000a81548173ffffffffffffffffffffffffffffffffffffffff021916908373ffffffffffffffffffffffffffffffffffffffff16021790555080600160006101000a81548173ffffffffffffffffffffffffffffffffffffffff021916908373ffffffffffffffffffffffffffffffffffffffff160217905550506200024c565b600033905090565b60008060009054906101000a900473ffffffffffffffffffffffffffffffffffffffff169050816000806101000a81548173ffffffffffffffffffffffffffffffffffffffff021916908373ffffffffffffffffffffffffffffffffffffffff1602179055508173ffffffffffffffffffffffffffffffffffffffff168173ffffffffffffffffffffffffffffffffffffffff167f8be0079c531659141344cd1fd0a4f28419497f9722a3daafe3b4186f6b6457e060405160405180910390a35050565b600080fd5b600073ffffffffffffffffffffffffffffffffffffffff82169050919050565b6000620001e282620001b5565b9050919050565b620001f481620001d5565b81146200020057600080fd5b50565b6000815190506200021481620001e9565b92915050565b600060208284031215620002335762000232620001b0565b5b6000620002438482850162000203565b91505092915050565b611a76806200025c6000396000f3fe60806040526004361061009c5760003560e01c80638da5cb5b116100645780638da5cb5b146101535780638f3252101461017e578063e8a379b2146101a9578063ed9772b6146101d2578063f2fde38b146101fb578063fcbf5e04146102245761009c565b806312065fe0146100a15780633610724e146100cc57806345596e2e146100e8578063715018a61461011157806384e5eed014610128575b600080fd5b3480156100ad57600080fd5b506100b661024f565b6040516100c39190610e5a565b60405180910390f35b6100e660048036038101906100e19190610ea6565b610257565b005b3480156100f457600080fd5b5061010f600480360381019061010a9190610ea6565b610604565b005b34801561011d57600080fd5b50610126610616565b005b34801561013457600080fd5b5061013d61062a565b60405161014a9190610e5a565b60405180910390f35b34801561015f57600080fd5b50610168610634565b6040516101759190610f14565b60405180910390f35b34801561018a57600080fd5b5061019361065d565b6040516101a09190610f8e565b60405180910390f35b3480156101b557600080fd5b506101d060048036038101906101cb9190610ea6565b610683565b005b3480156101de57600080fd5b506101f960048036038101906101f49190610fa9565b6107c2565b005b34801561020757600080fd5b50610222600480360381019061021d9190611015565b610ba5565b005b34801561023057600080fd5b50610239610c28565b6040516102469190610e5a565b60405180910390f35b600047905090565b600073ffffffffffffffffffffffffffffffffffffffff163373ffffffffffffffffffffffffffffffffffffffff16036102c6576040517f08c379a00000000000000000000000000000000000000000000000000000000081526004016102bd9061109f565b60405180910390fd5b60003411610309576040517f08c379a00000000000000000000000000000000000000000000000000000000081526004016103009061110b565b60405180910390fd5b6000600160009054906101000a900473ffffffffffffffffffffffffffffffffffffffff1673ffffffffffffffffffffffffffffffffffffffff166370a08231306040518263ffffffff1660e01b81526004016103669190610f14565b602060405180830381865afa158015610383573d6000803e3d6000fd5b505050506040513d601f19601f820116820180604052508101906103a79190611140565b9050600061040460646103f660035460646103c2919061119c565b6103e860646103da8934610ccb90919063ffffffff16565b610ce190919063ffffffff16565b610ccb90919063ffffffff16565b610ce190919063ffffffff16565b90506000610430606461042260035434610ccb90919063ffffffff16565b610ce190919063ffffffff16565b905081831015610475576040517f08c379a000000000000000000000000000000000000000000000000000000000815260040161046c90611242565b60405180910390fd5b6000600160009054906101000a900473ffffffffffffffffffffffffffffffffffffffff1673ffffffffffffffffffffffffffffffffffffffff1663a9059cbb33856040518363ffffffff1660e01b81526004016104d4929190611262565b6020604051808303816000875af11580156104f3573d6000803e3d6000fd5b505050506040513d601f19601f8201168201806040525081019061051791906112c3565b9050600260009054906101000a900473ffffffffffffffffffffffffffffffffffffffff1673ffffffffffffffffffffffffffffffffffffffff166108fc839081150290604051600060405180830381858888f19350505050158015610581573d6000803e3d6000fd5b50806105c2576040517f08c379a00000000000000000000000000000000000000000000000000000000081526004016105b990611362565b60405180910390fd5b7f0a37b72bb67eee30e09084cf386f8a17817c57f620c3ab95fb25d6a20356ec773334856040516105f593929190611382565b60405180910390a15050505050565b61060c610cf7565b8060038190555050565b61061e610cf7565b6106286000610d75565b565b6000600354905090565b60008060009054906101000a900473ffffffffffffffffffffffffffffffffffffffff16905090565b600160009054906101000a900473ffffffffffffffffffffffffffffffffffffffff1681565b600260009054906101000a900473ffffffffffffffffffffffffffffffffffffffff1673ffffffffffffffffffffffffffffffffffffffff163373ffffffffffffffffffffffffffffffffffffffff1614610713576040517f08c379a000000000000000000000000000000000000000000000000000000000815260040161070a9061142b565b60405180910390fd5b80471015610756576040517f08c379a000000000000000000000000000000000000000000000000000000000815260040161074d906114bd565b60405180910390fd5b600260009054906101000a900473ffffffffffffffffffffffffffffffffffffffff1673ffffffffffffffffffffffffffffffffffffffff166108fc829081150290604051600060405180830381858888f193505050501580156107be573d6000803e3d6000fd5b5050565b60008211610805576040517f08c379a00000000000000000000000000000000000000000000000000000000081526004016107fc9061154f565b60405180910390fd5b6000600160009054906101000a900473ffffffffffffffffffffffffffffffffffffffff1673ffffffffffffffffffffffffffffffffffffffff166370a08231336040518263ffffffff1660e01b81526004016108629190610f14565b602060405180830381865afa15801561087f573d6000803e3d6000fd5b505050506040513d601f19601f820116820180604052508101906108a39190611140565b9050828110156108e8576040517f08c379a00000000000000000000000000000000000000000000000000000000081526004016108df906115e1565b60405180910390fd5b600061094360646109356003546064610901919061119c565b6109276064610919898b610ccb90919063ffffffff16565b610ce190919063ffffffff16565b610ccb90919063ffffffff16565b610ce190919063ffffffff16565b905060008111610988576040517f08c379a000000000000000000000000000000000000000000000000000000000815260040161097f90611673565b60405180910390fd5b6000479050818110156109d0576040517f08c379a00000000000000000000000000000000000000000000000000000000081526004016109c790611705565b60405180910390fd5b6000600160009054906101000a900473ffffffffffffffffffffffffffffffffffffffff1673ffffffffffffffffffffffffffffffffffffffff166323b872dd3330896040518463ffffffff1660e01b8152600401610a3193929190611725565b6020604051808303816000875af1158015610a50573d6000803e3d6000fd5b505050506040513d601f19601f82011682018060405250810190610a7491906112c3565b905080610ab6576040517f08c379a0000000000000000000000000000000000000000000000000000000008152600401610aad906117ce565b60405180910390fd5b3373ffffffffffffffffffffffffffffffffffffffff1683604051610ada9061181f565b60006040518083038185875af1925050503d8060008114610b17576040519150601f19603f3d011682016040523d82523d6000602084013e610b1c565b606091505b50508091505080610b62576040517f08c379a0000000000000000000000000000000000000000000000000000000008152600401610b5990611880565b60405180910390fd5b7fa24838acd4af5195a2396965dae5abf54e84e8c19f5698bb966ae64e29994ee5338785604051610b9593929190611382565b60405180910390a1505050505050565b610bad610cf7565b600073ffffffffffffffffffffffffffffffffffffffff168173ffffffffffffffffffffffffffffffffffffffff1603610c1c576040517f08c379a0000000000000000000000000000000000000000000000000000000008152600401610c1390611912565b60405180910390fd5b610c2581610d75565b50565b6000600160009054906101000a900473ffffffffffffffffffffffffffffffffffffffff1673ffffffffffffffffffffffffffffffffffffffff166370a08231306040518263ffffffff1660e01b8152600401610c859190610f14565b602060405180830381865afa158015610ca2573d6000803e3d6000fd5b505050506040513d601f19601f82011682018060405250810190610cc69190611140565b905090565b60008183610cd99190611932565b905092915050565b60008183610cef91906119a3565b905092915050565b610cff610e39565b73ffffffffffffffffffffffffffffffffffffffff16610d1d610634565b73ffffffffffffffffffffffffffffffffffffffff1614610d73576040517f08c379a0000000000000000000000000000000000000000000000000000000008152600401610d6a90611a20565b60405180910390fd5b565b60008060009054906101000a900473ffffffffffffffffffffffffffffffffffffffff169050816000806101000a81548173ffffffffffffffffffffffffffffffffffffffff021916908373ffffffffffffffffffffffffffffffffffffffff1602179055508173ffffffffffffffffffffffffffffffffffffffff168173ffffffffffffffffffffffffffffffffffffffff167f8be0079c531659141344cd1fd0a4f28419497f9722a3daafe3b4186f6b6457e060405160405180910390a35050565b600033905090565b6000819050919050565b610e5481610e41565b82525050565b6000602082019050610e6f6000830184610e4b565b92915050565b600080fd5b610e8381610e41565b8114610e8e57600080fd5b50565b600081359050610ea081610e7a565b92915050565b600060208284031215610ebc57610ebb610e75565b5b6000610eca84828501610e91565b91505092915050565b600073ffffffffffffffffffffffffffffffffffffffff82169050919050565b6000610efe82610ed3565b9050919050565b610f0e81610ef3565b82525050565b6000602082019050610f296000830184610f05565b92915050565b6000819050919050565b6000610f54610f4f610f4a84610ed3565b610f2f565b610ed3565b9050919050565b6000610f6682610f39565b9050919050565b6000610f7882610f5b565b9050919050565b610f8881610f6d565b82525050565b6000602082019050610fa36000830184610f7f565b92915050565b60008060408385031215610fc057610fbf610e75565b5b6000610fce85828601610e91565b9250506020610fdf85828601610e91565b9150509250929050565b610ff281610ef3565b8114610ffd57600080fd5b50565b60008135905061100f81610fe9565b92915050565b60006020828403121561102b5761102a610e75565b5b600061103984828501611000565b91505092915050565b600082825260208201905092915050565b7f53656e64657220616464726573732063616e6e6f74206265207a65726f000000600082015250565b6000611089601d83611042565b915061109482611053565b602082019050919050565b600060208201905081810360008301526110b88161107c565b9050919050565b7f53656e64204d6174696320746f2062757920736f6d6520746f6b656e73000000600082015250565b60006110f5601d83611042565b9150611100826110bf565b602082019050919050565b60006020820190508181036000830152611124816110e8565b9050919050565b60008151905061113a81610e7a565b92915050565b60006020828403121561115657611155610e75565b5b60006111648482850161112b565b91505092915050565b7f4e487b7100000000000000000000000000000000000000000000000000000000600052601160045260246000fd5b60006111a782610e41565b91506111b283610e41565b92508282039050818111156111ca576111c961116d565b5b92915050565b7f56656e646f7220636f6e747261637420686173206e6f7420656e6f756768207460008201527f6f6b656e7320696e206974732062616c616e6365000000000000000000000000602082015250565b600061122c603483611042565b9150611237826111d0565b604082019050919050565b6000602082019050818103600083015261125b8161121f565b9050919050565b60006040820190506112776000830185610f05565b6112846020830184610e4b565b9392505050565b60008115159050919050565b6112a08161128b565b81146112ab57600080fd5b50565b6000815190506112bd81611297565b92915050565b6000602082840312156112d9576112d8610e75565b5b60006112e7848285016112ae565b91505092915050565b7f4661696c656420746f207472616e7366657220746f6b656e7320746f2062757960008201527f6572000000000000000000000000000000000000000000000000000000000000602082015250565b600061134c602283611042565b9150611357826112f0565b604082019050919050565b6000602082019050818103600083015261137b8161133f565b9050919050565b60006060820190506113976000830186610f05565b6113a46020830185610e4b565b6113b16040830184610e4b565b949350505050565b7f4f6e6c792061646d696e2063616e20776974686472617720457468657220667260008201527f6f6d2074686520636f6e74726163740000000000000000000000000000000000602082015250565b6000611415602f83611042565b9150611420826113b9565b604082019050919050565b6000602082019050818103600083015261144481611408565b9050919050565b7f496e73756666696369656e742045746865722062616c616e636520696e20746860008201527f6520636f6e747261637400000000000000000000000000000000000000000000602082015250565b60006114a7602a83611042565b91506114b28261144b565b604082019050919050565b600060208201905081810360008301526114d68161149a565b9050919050565b7f5370656369667920616e20616d6f756e74206f6620746f6b656e20677265617460008201527f6572207468616e207a65726f0000000000000000000000000000000000000000602082015250565b6000611539602c83611042565b9150611544826114dd565b604082019050919050565b600060208201905081810360008301526115688161152c565b9050919050565b7f596f75722062616c616e6365206973206c6f776572207468616e20746865206160008201527f6d6f756e74206f6620746f6b656e7320796f752077616e7420746f2073656c6c602082015250565b60006115cb604083611042565b91506115d68261156f565b604082019050919050565b600060208201905081810360008301526115fa816115be565b9050919050565b7f416d6f756e74206f66204d6174696320746f207472616e73666572206d75737460008201527f2062652067726561746572207468616e207a65726f0000000000000000000000602082015250565b600061165d603583611042565b915061166882611601565b604082019050919050565b6000602082019050818103600083015261168c81611650565b9050919050565b7f56656e646f7220686173206e6f7420656e6f7567682066756e647320746f206160008201527f6363657074207468652073656c6c207265717565737400000000000000000000602082015250565b60006116ef603683611042565b91506116fa82611693565b604082019050919050565b6000602082019050818103600083015261171e816116e2565b9050919050565b600060608201905061173a6000830186610f05565b6117476020830185610f05565b6117546040830184610e4b565b949350505050565b7f4661696c656420746f207472616e7366657220746f6b656e732066726f6d207560008201527f73657220746f2076656e646f7200000000000000000000000000000000000000602082015250565b60006117b8602d83611042565b91506117c38261175c565b604082019050919050565b600060208201905081810360008301526117e7816117ab565b9050919050565b600081905092915050565b50565b60006118096000836117ee565b9150611814826117f9565b600082019050919050565b600061182a826117fc565b9150819050919050565b7f4661696c656420746f2073656e64204d6174696320746f207468652075736572600082015250565b600061186a602083611042565b915061187582611834565b602082019050919050565b600060208201905081810360008301526118998161185d565b9050919050565b7f4f776e61626c653a206e6577206f776e657220697320746865207a65726f206160008201527f6464726573730000000000000000000000000000000000000000000000000000602082015250565b60006118fc602683611042565b9150611907826118a0565b604082019050919050565b6000602082019050818103600083015261192b816118ef565b9050919050565b600061193d82610e41565b915061194883610e41565b925082820261195681610e41565b9150828204841483151761196d5761196c61116d565b5b5092915050565b7f4e487b7100000000000000000000000000000000000000000000000000000000600052601260045260246000fd5b60006119ae82610e41565b91506119b983610e41565b9250826119c9576119c8611974565b5b828204905092915050565b7f4f776e61626c653a2063616c6c6572206973206e6f7420746865206f776e6572600082015250565b6000611a0a602083611042565b9150611a15826119d4565b602082019050919050565b60006020820190508181036000830152611a39816119fd565b905091905056fea26469706673582212202650039f70d315607cca337134560933066222d42a2686fa4262b878b22186b964736f6c63430008130033",
  "immutableReferences": {},
  "source": "//SPDX-License-Identifier: MIT\r\npragma solidity ^0.8.19;\r\n\r\nimport '../contracts/HutToken.sol';\r\nimport '../node_modules/@openzeppelin/contracts/utils/math/SafeMath.sol';\r\nimport '../node_modules/@openzeppelin/contracts/access/Ownable.sol';\r\n\r\ncontract Vendor is Ownable {\r\n    using SafeMath for uint256;\r\n\r\n    HutToken public hutToken;\r\n    event BuyTokens(address buyer, uint256 amountOfMatic, uint256 amountOfTokens);\r\n    event SellTokens(address seller, uint256 amountofTokens, uint256 amountOfMatic);\r\n\r\n    address private admin;\r\n    uint256 private feeRate = 3;\r\n\r\n    constructor(address _tokenAddress) {\r\n        admin = msg.sender;\r\n        hutToken = HutToken(_tokenAddress);\r\n    }\r\n\r\n    function getHutToken() external view returns (uint256 tokenAmount) {\r\n        return hutToken.balanceOf(address(this));\r\n    }\r\n\r\n    function buyTokens(uint256 _rate) external payable {\r\n        require(msg.sender != address(0), 'Sender address cannot be zero');\r\n        require(msg.value > 0, 'Send Matic to buy some tokens');\r\n\r\n        uint256 vendorBalance = hutToken.balanceOf(address(this));\r\n        uint256 hutTokenAmount = msg.value.mul(_rate).div(100).mul(100 - feeRate).div(100);\r\n        uint256 feeAmount = msg.value.mul(feeRate).div(100);\r\n\r\n        require(vendorBalance >= hutTokenAmount, 'Vendor contract has not enough tokens in its balance');\r\n\r\n        bool sent = hutToken.transfer(msg.sender, hutTokenAmount);\r\n        payable(admin).transfer(feeAmount);\r\n\r\n        require(sent, 'Failed to transfer tokens to buyer');\r\n        emit BuyTokens(msg.sender, msg.value, hutTokenAmount);\r\n    }\r\n\r\n    function sellTokens(uint256 _tokenAmountToSell, uint256 _rate) external {\r\n        require(_tokenAmountToSell > 0, 'Specify an amount of token greater than zero');\r\n\r\n        uint256 userBalance = hutToken.balanceOf(msg.sender);\r\n        require(userBalance >= _tokenAmountToSell, 'Your balance is lower than the amount of tokens you want to sell');\r\n\r\n        uint256 amountOfMaticToTransfer = _tokenAmountToSell.mul(_rate).div(100).mul(100 - feeRate).div(100);\r\n        require(amountOfMaticToTransfer > 0, 'Amount of Matic to transfer must be greater than zero');\r\n\r\n        uint256 ownerMaticBalance = address(this).balance;\r\n        require(ownerMaticBalance >= amountOfMaticToTransfer, 'Vendor has not enough funds to accept the sell request');\r\n\r\n        bool sent = hutToken.transferFrom(msg.sender, address(this), _tokenAmountToSell);\r\n        require(sent, 'Failed to transfer tokens from user to vendor');\r\n\r\n        (sent, ) = msg.sender.call{ value: amountOfMaticToTransfer }('');\r\n        require(sent, 'Failed to send Matic to the user');\r\n\r\n        emit SellTokens(msg.sender, _tokenAmountToSell, amountOfMaticToTransfer);\r\n    }\r\n\r\n    function getBalance() external view returns (uint256) {\r\n        return address(this).balance;\r\n    }\r\n\r\n    function setFeeRate(uint256 _newFeeRate) external onlyOwner {\r\n        feeRate = _newFeeRate;\r\n    }\r\n\r\n    function getFeeRate() external view returns (uint256) {\r\n        return feeRate;\r\n    }\r\n\r\n    function withdrawMatic(uint256 _amount) external {\r\n        require(msg.sender == admin, 'Only admin can withdraw Ether from the contract');\r\n        require(address(this).balance >= _amount, 'Insufficient Ether balance in the contract');\r\n        payable(admin).transfer(_amount);\r\n    }\r\n}\r\n",
  "sourcePath": "C:\\Users\\effor\\Git\\windex\\server\\contracts\\Vendor.sol",
  "compiler": {
    "name": "solc",
    "version": "0.8.19+commit.7dd6d404.Emscripten.clang"
  },
  "schemaVersion": "3.4.13",
  "updatedAt": "2023-05-22T06:10:58.709Z",
  "devdoc": {
    "kind": "dev",
    "methods": {
      "owner()": {
        "details": "Returns the address of the current owner."
      },
      "renounceOwnership()": {
        "details": "Leaves the contract without owner. It will not be possible to call `onlyOwner` functions anymore. Can only be called by the current owner. NOTE: Renouncing ownership will leave the contract without an owner, thereby removing any functionality that is only available to the owner."
      },
      "transferOwnership(address)": {
        "details": "Transfers ownership of the contract to a new account (`newOwner`). Can only be called by the current owner."
      }
    },
    "version": 1
  },
  "userdoc": {
    "kind": "user",
    "methods": {},
    "version": 1
  }
}