{
  "contractName": "WinenwinToken",
  "abi": [
    {
      "inputs": [],
      "stateMutability": "nonpayable",
      "type": "constructor"
    },
    {
      "anonymous": false,
      "inputs": [
        {
          "indexed": true,
          "internalType": "address",
          "name": "account",
          "type": "address"
        },
        {
          "indexed": true,
          "internalType": "address",
          "name": "operator",
          "type": "address"
        },
        {
          "indexed": false,
          "internalType": "bool",
          "name": "approved",
          "type": "bool"
        }
      ],
      "name": "ApprovalForAll",
      "type": "event"
    },
    {
      "anonymous": false,
      "inputs": [
        {
          "indexed": true,
          "internalType": "address",
          "name": "previousOwner",
          "type": "address"
        },
        {
          "indexed": true,
          "internalType": "address",
          "name": "newOwner",
          "type": "address"
        }
      ],
      "name": "OwnershipTransferred",
      "type": "event"
    },
    {
      "anonymous": false,
      "inputs": [
        {
          "indexed": true,
          "internalType": "address",
          "name": "operator",
          "type": "address"
        },
        {
          "indexed": true,
          "internalType": "address",
          "name": "from",
          "type": "address"
        },
        {
          "indexed": true,
          "internalType": "address",
          "name": "to",
          "type": "address"
        },
        {
          "indexed": false,
          "internalType": "uint256[]",
          "name": "ids",
          "type": "uint256[]"
        },
        {
          "indexed": false,
          "internalType": "uint256[]",
          "name": "values",
          "type": "uint256[]"
        }
      ],
      "name": "TransferBatch",
      "type": "event"
    },
    {
      "anonymous": false,
      "inputs": [
        {
          "indexed": true,
          "internalType": "address",
          "name": "operator",
          "type": "address"
        },
        {
          "indexed": true,
          "internalType": "address",
          "name": "from",
          "type": "address"
        },
        {
          "indexed": true,
          "internalType": "address",
          "name": "to",
          "type": "address"
        },
        {
          "indexed": false,
          "internalType": "uint256",
          "name": "id",
          "type": "uint256"
        },
        {
          "indexed": false,
          "internalType": "uint256",
          "name": "value",
          "type": "uint256"
        }
      ],
      "name": "TransferSingle",
      "type": "event"
    },
    {
      "anonymous": false,
      "inputs": [
        {
          "indexed": false,
          "internalType": "string",
          "name": "value",
          "type": "string"
        },
        {
          "indexed": true,
          "internalType": "uint256",
          "name": "id",
          "type": "uint256"
        }
      ],
      "name": "URI",
      "type": "event"
    },
    {
      "inputs": [
        {
          "internalType": "address",
          "name": "account",
          "type": "address"
        },
        {
          "internalType": "uint256",
          "name": "id",
          "type": "uint256"
        }
      ],
      "name": "balanceOf",
      "outputs": [
        {
          "internalType": "uint256",
          "name": "",
          "type": "uint256"
        }
      ],
      "stateMutability": "view",
      "type": "function"
    },
    {
      "inputs": [
        {
          "internalType": "address[]",
          "name": "accounts",
          "type": "address[]"
        },
        {
          "internalType": "uint256[]",
          "name": "ids",
          "type": "uint256[]"
        }
      ],
      "name": "balanceOfBatch",
      "outputs": [
        {
          "internalType": "uint256[]",
          "name": "",
          "type": "uint256[]"
        }
      ],
      "stateMutability": "view",
      "type": "function"
    },
    {
      "inputs": [
        {
          "internalType": "address",
          "name": "account",
          "type": "address"
        },
        {
          "internalType": "address",
          "name": "operator",
          "type": "address"
        }
      ],
      "name": "isApprovedForAll",
      "outputs": [
        {
          "internalType": "bool",
          "name": "",
          "type": "bool"
        }
      ],
      "stateMutability": "view",
      "type": "function"
    },
    {
      "inputs": [],
      "name": "name",
      "outputs": [
        {
          "internalType": "string",
          "name": "",
          "type": "string"
        }
      ],
      "stateMutability": "view",
      "type": "function"
    },
    {
      "inputs": [],
      "name": "owner",
      "outputs": [
        {
          "internalType": "address",
          "name": "",
          "type": "address"
        }
      ],
      "stateMutability": "view",
      "type": "function"
    },
    {
      "inputs": [],
      "name": "renounceOwnership",
      "outputs": [],
      "stateMutability": "nonpayable",
      "type": "function"
    },
    {
      "inputs": [
        {
          "internalType": "address",
          "name": "from",
          "type": "address"
        },
        {
          "internalType": "address",
          "name": "to",
          "type": "address"
        },
        {
          "internalType": "uint256[]",
          "name": "ids",
          "type": "uint256[]"
        },
        {
          "internalType": "uint256[]",
          "name": "amounts",
          "type": "uint256[]"
        },
        {
          "internalType": "bytes",
          "name": "data",
          "type": "bytes"
        }
      ],
      "name": "safeBatchTransferFrom",
      "outputs": [],
      "stateMutability": "nonpayable",
      "type": "function"
    },
    {
      "inputs": [
        {
          "internalType": "address",
          "name": "from",
          "type": "address"
        },
        {
          "internalType": "address",
          "name": "to",
          "type": "address"
        },
        {
          "internalType": "uint256",
          "name": "id",
          "type": "uint256"
        },
        {
          "internalType": "uint256",
          "name": "amount",
          "type": "uint256"
        },
        {
          "internalType": "bytes",
          "name": "data",
          "type": "bytes"
        }
      ],
      "name": "safeTransferFrom",
      "outputs": [],
      "stateMutability": "nonpayable",
      "type": "function"
    },
    {
      "inputs": [
        {
          "internalType": "address",
          "name": "operator",
          "type": "address"
        },
        {
          "internalType": "bool",
          "name": "approved",
          "type": "bool"
        }
      ],
      "name": "setApprovalForAll",
      "outputs": [],
      "stateMutability": "nonpayable",
      "type": "function"
    },
    {
      "inputs": [
        {
          "internalType": "bytes4",
          "name": "interfaceId",
          "type": "bytes4"
        }
      ],
      "name": "supportsInterface",
      "outputs": [
        {
          "internalType": "bool",
          "name": "",
          "type": "bool"
        }
      ],
      "stateMutability": "view",
      "type": "function"
    },
    {
      "inputs": [],
      "name": "symbol",
      "outputs": [
        {
          "internalType": "string",
          "name": "",
          "type": "string"
        }
      ],
      "stateMutability": "view",
      "type": "function"
    },
    {
      "inputs": [
        {
          "internalType": "address",
          "name": "newOwner",
          "type": "address"
        }
      ],
      "name": "transferOwnership",
      "outputs": [],
      "stateMutability": "nonpayable",
      "type": "function"
    },
    {
      "inputs": [
        {
          "internalType": "uint256",
          "name": "tokenId",
          "type": "uint256"
        }
      ],
      "name": "uri",
      "outputs": [
        {
          "internalType": "string",
          "name": "",
          "type": "string"
        }
      ],
      "stateMutability": "view",
      "type": "function"
    },
    {
      "inputs": [
        {
          "internalType": "address",
          "name": "account",
          "type": "address"
        },
        {
          "internalType": "uint256",
          "name": "amount",
          "type": "uint256"
        },
        {
          "internalType": "string",
          "name": "_tokenURI",
          "type": "string"
        }
      ],
      "name": "mint",
      "outputs": [],
      "stateMutability": "nonpayable",
      "type": "function"
    },
    {
      "inputs": [
        {
          "internalType": "uint256",
          "name": "tokenId",
          "type": "uint256"
        },
        {
          "internalType": "uint256",
          "name": "amount",
          "type": "uint256"
        }
      ],
      "name": "addTokenSupply",
      "outputs": [],
      "stateMutability": "nonpayable",
      "type": "function"
    },
    {
      "inputs": [
        {
          "internalType": "uint256",
          "name": "tokenId",
          "type": "uint256"
        },
        {
          "internalType": "uint256",
          "name": "amount",
          "type": "uint256"
        }
      ],
      "name": "removeTokenSupply",
      "outputs": [],
      "stateMutability": "nonpayable",
      "type": "function"
    },
    {
      "inputs": [
        {
          "internalType": "address",
          "name": "to",
          "type": "address"
        },
        {
          "internalType": "uint256[]",
          "name": "amounts",
          "type": "uint256[]"
        },
        {
          "internalType": "string[]",
          "name": "tokenURIs",
          "type": "string[]"
        }
      ],
      "name": "mintBatch",
      "outputs": [],
      "stateMutability": "nonpayable",
      "type": "function"
    },
    {
      "inputs": [],
      "name": "getNftAmount",
      "outputs": [
        {
          "internalType": "uint256",
          "name": "",
          "type": "uint256"
        }
      ],
      "stateMutability": "view",
      "type": "function"
    }
  ],
  "bytecode": "0x60806040526040518060200160405280600081525060049081620000249190620004a2565b503480156200003257600080fd5b5060088054620000429062000291565b80601f0160208091040260200160405190810160405280929190818152602001828054620000709062000291565b8015620000c15780601f106200009557610100808354040283529160200191620000c1565b820191906000526020600020905b815481529060010190602001808311620000a357829003601f168201915b5050505050620000d7816200013060201b60201c565b50620000f8620000ec6200014560201b60201c565b6200014d60201b60201c565b60016006819055506200012a604051806060016040528060228152602001620042a6602291396200021360201b60201c565b62000589565b8060029081620001419190620004a2565b5050565b600033905090565b6000600360009054906101000a900473ffffffffffffffffffffffffffffffffffffffff16905081600360006101000a81548173ffffffffffffffffffffffffffffffffffffffff021916908373ffffffffffffffffffffffffffffffffffffffff1602179055508173ffffffffffffffffffffffffffffffffffffffff168173ffffffffffffffffffffffffffffffffffffffff167f8be0079c531659141344cd1fd0a4f28419497f9722a3daafe3b4186f6b6457e060405160405180910390a35050565b8060049081620002249190620004a2565b5050565b600081519050919050565b7f4e487b7100000000000000000000000000000000000000000000000000000000600052604160045260246000fd5b7f4e487b7100000000000000000000000000000000000000000000000000000000600052602260045260246000fd5b60006002820490506001821680620002aa57607f821691505b602082108103620002c057620002bf62000262565b5b50919050565b60008190508160005260206000209050919050565b60006020601f8301049050919050565b600082821b905092915050565b6000600883026200032a7fffffffffffffffffffffffffffffffffffffffffffffffffffffffffffffffff82620002eb565b620003368683620002eb565b95508019841693508086168417925050509392505050565b6000819050919050565b6000819050919050565b6000620003836200037d62000377846200034e565b62000358565b6200034e565b9050919050565b6000819050919050565b6200039f8362000362565b620003b7620003ae826200038a565b848454620002f8565b825550505050565b600090565b620003ce620003bf565b620003db81848462000394565b505050565b5b818110156200040357620003f7600082620003c4565b600181019050620003e1565b5050565b601f82111562000452576200041c81620002c6565b6200042784620002db565b8101602085101562000437578190505b6200044f6200044685620002db565b830182620003e0565b50505b505050565b600082821c905092915050565b6000620004776000198460080262000457565b1980831691505092915050565b600062000492838362000464565b9150826002028217905092915050565b620004ad8262000228565b67ffffffffffffffff811115620004c957620004c862000233565b5b620004d5825462000291565b620004e282828562000407565b600060209050601f8311600181146200051a576000841562000505578287015190505b62000511858262000484565b86555062000581565b601f1984166200052a86620002c6565b60005b8281101562000554578489015182556001820191506020850194506020810190506200052d565b8683101562000574578489015162000570601f89168262000464565b8355505b6001600288020188555050505b505050505050565b613d0d80620005996000396000f3fe608060405234801561001057600080fd5b50600436106101155760003560e01c806376f5e9f1116100a2578063aaa2836111610071578063aaa28361146102cc578063d3fc9864146102e8578063e985e9c514610304578063f242432a14610334578063f2fde38b1461035057610115565b806376f5e9f1146102565780638da5cb5b1461027457806395d89b4114610292578063a22cb465146102b057610115565b8063146d9ddc116100e9578063146d9ddc146101c857806323e96247146101e45780632eb2c2d6146102005780634e1273f41461021c578063715018a61461024c57610115565b8062fdd58e1461011a57806301ffc9a71461014a57806306fdde031461017a5780630e89341c14610198575b600080fd5b610134600480360381019061012f91906121d5565b61036c565b6040516101419190612224565b60405180910390f35b610164600480360381019061015f9190612297565b610434565b60405161017191906122df565b60405180910390f35b610182610516565b60405161018f919061238a565b60405180910390f35b6101b260048036038101906101ad91906123ac565b61054f565b6040516101bf919061238a565b60405180910390f35b6101e260048036038101906101dd91906126b7565b610561565b005b6101fe60048036038101906101f99190612742565b6106a9565b005b61021a60048036038101906102159190612823565b6106e0565b005b610236600480360381019061023191906129b5565b610781565b6040516102439190612aeb565b60405180910390f35b61025461089a565b005b61025e6108ae565b60405161026b9190612224565b60405180910390f35b61027c6108c4565b6040516102899190612b1c565b60405180910390f35b61029a6108ee565b6040516102a7919061238a565b60405180910390f35b6102ca60048036038101906102c59190612b63565b610927565b005b6102e660048036038101906102e19190612742565b61093d565b005b61030260048036038101906102fd9190612ba3565b610964565b005b61031e60048036038101906103199190612c12565b6109bf565b60405161032b91906122df565b60405180910390f35b61034e60048036038101906103499190612c52565b610a53565b005b61036a60048036038101906103659190612ce9565b610af4565b005b60008073ffffffffffffffffffffffffffffffffffffffff168373ffffffffffffffffffffffffffffffffffffffff16036103dc576040517f08c379a00000000000000000000000000000000000000000000000000000000081526004016103d390612d88565b60405180910390fd5b60008083815260200190815260200160002060008473ffffffffffffffffffffffffffffffffffffffff1673ffffffffffffffffffffffffffffffffffffffff16815260200190815260200160002054905092915050565b60007fd9b67a26000000000000000000000000000000000000000000000000000000007bffffffffffffffffffffffffffffffffffffffffffffffffffffffff1916827bffffffffffffffffffffffffffffffffffffffffffffffffffffffff191614806104ff57507f0e89341c000000000000000000000000000000000000000000000000000000007bffffffffffffffffffffffffffffffffffffffffffffffffffffffff1916827bffffffffffffffffffffffffffffffffffffffffffffffffffffffff1916145b8061050f575061050e82610b77565b5b9050919050565b6040518060400160405280600881526020017f77696e656e77696e00000000000000000000000000000000000000000000000081525081565b606061055a82610be1565b9050919050565b610569610cc6565b610571610d44565b80518251146105b5576040517f08c379a00000000000000000000000000000000000000000000000000000000081526004016105ac90612df4565b60405180910390fd5b6000825167ffffffffffffffff8111156105d2576105d16123de565b5b6040519080825280602002602001820160405280156106005781602001602082028036833780820191505090505b50905060005b835181101561067f576106196007610d93565b60006106256007610da9565b905061064b8185848151811061063e5761063d612e14565b5b6020026020010151610db7565b8083838151811061065f5761065e612e14565b5b60200260200101818152505050808061067790612e72565b915050610606565b5061069b84828560405180602001604052806000815250610e1c565b506106a4611048565b505050565b6106b1610cc6565b6106b9610d44565b6106d433838360405180602001604052806000815250611052565b6106dc611048565b5050565b6106e8611202565b73ffffffffffffffffffffffffffffffffffffffff168573ffffffffffffffffffffffffffffffffffffffff16148061072e575061072d85610728611202565b6109bf565b5b61076d576040517f08c379a000000000000000000000000000000000000000000000000000000000815260040161076490612f2c565b60405180910390fd5b61077a858585858561120a565b5050505050565b606081518351146107c7576040517f08c379a00000000000000000000000000000000000000000000000000000000081526004016107be90612fbe565b60405180910390fd5b6000835167ffffffffffffffff8111156107e4576107e36123de565b5b6040519080825280602002602001820160405280156108125781602001602082028036833780820191505090505b50905060005b845181101561088f5761085f85828151811061083757610836612e14565b5b602002602001015185838151811061085257610851612e14565b5b602002602001015161036c565b82828151811061087257610871612e14565b5b6020026020010181815250508061088890612e72565b9050610818565b508091505092915050565b6108a2610cc6565b6108ac600061152b565b565b6000806108bb6007610da9565b90508091505090565b6000600360009054906101000a900473ffffffffffffffffffffffffffffffffffffffff16905090565b6040518060400160405280600381526020017f57494e000000000000000000000000000000000000000000000000000000000081525081565b610939610932611202565b83836115f1565b5050565b610945610cc6565b61094d610d44565b61095833838361175d565b610960611048565b5050565b61096c610cc6565b610974610d44565b61097e6007610d93565b600061098a6007610da9565b90506109968183610db7565b6109b184828560405180602001604052806000815250611052565b506109ba611048565b505050565b6000600160008473ffffffffffffffffffffffffffffffffffffffff1673ffffffffffffffffffffffffffffffffffffffff16815260200190815260200160002060008373ffffffffffffffffffffffffffffffffffffffff1673ffffffffffffffffffffffffffffffffffffffff16815260200190815260200160002060009054906101000a900460ff16905092915050565b610a5b611202565b73ffffffffffffffffffffffffffffffffffffffff168573ffffffffffffffffffffffffffffffffffffffff161480610aa15750610aa085610a9b611202565b6109bf565b5b610ae0576040517f08c379a0000000000000000000000000000000000000000000000000000000008152600401610ad790612f2c565b60405180910390fd5b610aed85858585856119a3565b5050505050565b610afc610cc6565b600073ffffffffffffffffffffffffffffffffffffffff168173ffffffffffffffffffffffffffffffffffffffff1603610b6b576040517f08c379a0000000000000000000000000000000000000000000000000000000008152600401610b6290613050565b60405180910390fd5b610b748161152b565b50565b60007f01ffc9a7000000000000000000000000000000000000000000000000000000007bffffffffffffffffffffffffffffffffffffffffffffffffffffffff1916827bffffffffffffffffffffffffffffffffffffffffffffffffffffffff1916149050919050565b60606000600560008481526020019081526020016000208054610c039061309f565b80601f0160208091040260200160405190810160405280929190818152602001828054610c2f9061309f565b8015610c7c5780601f10610c5157610100808354040283529160200191610c7c565b820191906000526020600020905b815481529060010190602001808311610c5f57829003601f168201915b505050505090506000815111610c9a57610c9583611c3e565b610cbe565b600481604051602001610cae9291906131a4565b6040516020818303038152906040525b915050919050565b610cce611202565b73ffffffffffffffffffffffffffffffffffffffff16610cec6108c4565b73ffffffffffffffffffffffffffffffffffffffff1614610d42576040517f08c379a0000000000000000000000000000000000000000000000000000000008152600401610d3990613214565b60405180910390fd5b565b600260065403610d89576040517f08c379a0000000000000000000000000000000000000000000000000000000008152600401610d8090613280565b60405180910390fd5b6002600681905550565b6001816000016000828254019250508190555050565b600081600001549050919050565b80600560008481526020019081526020016000209081610dd79190613437565b50817f6bb7ff708619ba0610cba295a58592e0451dee2622938c8755667688daf3529b610e038461054f565b604051610e10919061238a565b60405180910390a25050565b600073ffffffffffffffffffffffffffffffffffffffff168473ffffffffffffffffffffffffffffffffffffffff1603610e8b576040517f08c379a0000000000000000000000000000000000000000000000000000000008152600401610e829061357b565b60405180910390fd5b8151835114610ecf576040517f08c379a0000000000000000000000000000000000000000000000000000000008152600401610ec69061360d565b60405180910390fd5b6000610ed9611202565b9050610eea81600087878787611cd2565b60005b8451811015610fa357838181518110610f0957610f08612e14565b5b6020026020010151600080878481518110610f2757610f26612e14565b5b6020026020010151815260200190815260200160002060008873ffffffffffffffffffffffffffffffffffffffff1673ffffffffffffffffffffffffffffffffffffffff1681526020019081526020016000206000828254610f89919061362d565b925050819055508080610f9b90612e72565b915050610eed565b508473ffffffffffffffffffffffffffffffffffffffff16600073ffffffffffffffffffffffffffffffffffffffff168273ffffffffffffffffffffffffffffffffffffffff167f4a39dc06d4c0dbc64b70af90fd698a233a518aa5d07e595d983b8c0526c8f7fb878760405161101b929190613661565b60405180910390a461103281600087878787611cda565b61104181600087878787611ce2565b5050505050565b6001600681905550565b600073ffffffffffffffffffffffffffffffffffffffff168473ffffffffffffffffffffffffffffffffffffffff16036110c1576040517f08c379a00000000000000000000000000000000000000000000000000000000081526004016110b89061357b565b60405180910390fd5b60006110cb611202565b905060006110d885611eb9565b905060006110e585611eb9565b90506110f683600089858589611cd2565b8460008088815260200190815260200160002060008973ffffffffffffffffffffffffffffffffffffffff1673ffffffffffffffffffffffffffffffffffffffff1681526020019081526020016000206000828254611155919061362d565b925050819055508673ffffffffffffffffffffffffffffffffffffffff16600073ffffffffffffffffffffffffffffffffffffffff168473ffffffffffffffffffffffffffffffffffffffff167fc3d58168c5ae7397731d063d5bbf3d657854427343f4c083240f7aacaa2d0f6289896040516111d3929190613698565b60405180910390a46111ea83600089858589611cda565b6111f983600089898989611f33565b50505050505050565b600033905090565b815183511461124e576040517f08c379a00000000000000000000000000000000000000000000000000000000081526004016112459061360d565b60405180910390fd5b600073ffffffffffffffffffffffffffffffffffffffff168473ffffffffffffffffffffffffffffffffffffffff16036112bd576040517f08c379a00000000000000000000000000000000000000000000000000000000081526004016112b490613733565b60405180910390fd5b60006112c7611202565b90506112d7818787878787611cd2565b60005b84518110156114885760008582815181106112f8576112f7612e14565b5b60200260200101519050600085838151811061131757611316612e14565b5b60200260200101519050600080600084815260200190815260200160002060008b73ffffffffffffffffffffffffffffffffffffffff1673ffffffffffffffffffffffffffffffffffffffff168152602001908152602001600020549050818110156113b8576040517f08c379a00000000000000000000000000000000000000000000000000000000081526004016113af906137c5565b60405180910390fd5b81810360008085815260200190815260200160002060008c73ffffffffffffffffffffffffffffffffffffffff1673ffffffffffffffffffffffffffffffffffffffff168152602001908152602001600020819055508160008085815260200190815260200160002060008b73ffffffffffffffffffffffffffffffffffffffff1673ffffffffffffffffffffffffffffffffffffffff168152602001908152602001600020600082825461146d919061362d565b925050819055505050508061148190612e72565b90506112da565b508473ffffffffffffffffffffffffffffffffffffffff168673ffffffffffffffffffffffffffffffffffffffff168273ffffffffffffffffffffffffffffffffffffffff167f4a39dc06d4c0dbc64b70af90fd698a233a518aa5d07e595d983b8c0526c8f7fb87876040516114ff929190613661565b60405180910390a4611515818787878787611cda565b611523818787878787611ce2565b505050505050565b6000600360009054906101000a900473ffffffffffffffffffffffffffffffffffffffff16905081600360006101000a81548173ffffffffffffffffffffffffffffffffffffffff021916908373ffffffffffffffffffffffffffffffffffffffff1602179055508173ffffffffffffffffffffffffffffffffffffffff168173ffffffffffffffffffffffffffffffffffffffff167f8be0079c531659141344cd1fd0a4f28419497f9722a3daafe3b4186f6b6457e060405160405180910390a35050565b8173ffffffffffffffffffffffffffffffffffffffff168373ffffffffffffffffffffffffffffffffffffffff160361165f576040517f08c379a000000000000000000000000000000000000000000000000000000000815260040161165690613857565b60405180910390fd5b80600160008573ffffffffffffffffffffffffffffffffffffffff1673ffffffffffffffffffffffffffffffffffffffff16815260200190815260200160002060008473ffffffffffffffffffffffffffffffffffffffff1673ffffffffffffffffffffffffffffffffffffffff16815260200190815260200160002060006101000a81548160ff0219169083151502179055508173ffffffffffffffffffffffffffffffffffffffff168373ffffffffffffffffffffffffffffffffffffffff167f17307eab39ab6107e8899845ad3d59bd9653f200f220920489ca2b5937696c318360405161175091906122df565b60405180910390a3505050565b600073ffffffffffffffffffffffffffffffffffffffff168373ffffffffffffffffffffffffffffffffffffffff16036117cc576040517f08c379a00000000000000000000000000000000000000000000000000000000081526004016117c3906138e9565b60405180910390fd5b60006117d6611202565b905060006117e384611eb9565b905060006117f084611eb9565b905061181083876000858560405180602001604052806000815250611cd2565b600080600087815260200190815260200160002060008873ffffffffffffffffffffffffffffffffffffffff1673ffffffffffffffffffffffffffffffffffffffff168152602001908152602001600020549050848110156118a7576040517f08c379a000000000000000000000000000000000000000000000000000000000815260040161189e9061397b565b60405180910390fd5b84810360008088815260200190815260200160002060008973ffffffffffffffffffffffffffffffffffffffff1673ffffffffffffffffffffffffffffffffffffffff16815260200190815260200160002081905550600073ffffffffffffffffffffffffffffffffffffffff168773ffffffffffffffffffffffffffffffffffffffff168573ffffffffffffffffffffffffffffffffffffffff167fc3d58168c5ae7397731d063d5bbf3d657854427343f4c083240f7aacaa2d0f628989604051611974929190613698565b60405180910390a461199a84886000868660405180602001604052806000815250611cda565b50505050505050565b600073ffffffffffffffffffffffffffffffffffffffff168473ffffffffffffffffffffffffffffffffffffffff1603611a12576040517f08c379a0000000000000000000000000000000000000000000000000000000008152600401611a0990613733565b60405180910390fd5b6000611a1c611202565b90506000611a2985611eb9565b90506000611a3685611eb9565b9050611a46838989858589611cd2565b600080600088815260200190815260200160002060008a73ffffffffffffffffffffffffffffffffffffffff1673ffffffffffffffffffffffffffffffffffffffff16815260200190815260200160002054905085811015611add576040517f08c379a0000000000000000000000000000000000000000000000000000000008152600401611ad4906137c5565b60405180910390fd5b85810360008089815260200190815260200160002060008b73ffffffffffffffffffffffffffffffffffffffff1673ffffffffffffffffffffffffffffffffffffffff168152602001908152602001600020819055508560008089815260200190815260200160002060008a73ffffffffffffffffffffffffffffffffffffffff1673ffffffffffffffffffffffffffffffffffffffff1681526020019081526020016000206000828254611b92919061362d565b925050819055508773ffffffffffffffffffffffffffffffffffffffff168973ffffffffffffffffffffffffffffffffffffffff168573ffffffffffffffffffffffffffffffffffffffff167fc3d58168c5ae7397731d063d5bbf3d657854427343f4c083240f7aacaa2d0f628a8a604051611c0f929190613698565b60405180910390a4611c25848a8a86868a611cda565b611c33848a8a8a8a8a611f33565b505050505050505050565b606060028054611c4d9061309f565b80601f0160208091040260200160405190810160405280929190818152602001828054611c799061309f565b8015611cc65780601f10611c9b57610100808354040283529160200191611cc6565b820191906000526020600020905b815481529060010190602001808311611ca957829003601f168201915b50505050509050919050565b505050505050565b505050505050565b611d018473ffffffffffffffffffffffffffffffffffffffff1661210a565b15611eb1578373ffffffffffffffffffffffffffffffffffffffff1663bc197c8187878686866040518663ffffffff1660e01b8152600401611d479594939291906139f0565b6020604051808303816000875af1925050508015611d8357506040513d601f19601f82011682018060405250810190611d809190613a6d565b60015b611e2857611d8f613aa7565b806308c379a003611deb5750611da3613ac9565b80611dae5750611ded565b806040517f08c379a0000000000000000000000000000000000000000000000000000000008152600401611de2919061238a565b60405180910390fd5b505b6040517f08c379a0000000000000000000000000000000000000000000000000000000008152600401611e1f90613bcb565b60405180910390fd5b63bc197c8160e01b7bffffffffffffffffffffffffffffffffffffffffffffffffffffffff1916817bffffffffffffffffffffffffffffffffffffffffffffffffffffffff191614611eaf576040517f08c379a0000000000000000000000000000000000000000000000000000000008152600401611ea690613c5d565b60405180910390fd5b505b505050505050565b60606000600167ffffffffffffffff811115611ed857611ed76123de565b5b604051908082528060200260200182016040528015611f065781602001602082028036833780820191505090505b5090508281600081518110611f1e57611f1d612e14565b5b60200260200101818152505080915050919050565b611f528473ffffffffffffffffffffffffffffffffffffffff1661210a565b15612102578373ffffffffffffffffffffffffffffffffffffffff1663f23a6e6187878686866040518663ffffffff1660e01b8152600401611f98959493929190613c7d565b6020604051808303816000875af1925050508015611fd457506040513d601f19601f82011682018060405250810190611fd19190613a6d565b60015b61207957611fe0613aa7565b806308c379a00361203c5750611ff4613ac9565b80611fff575061203e565b806040517f08c379a0000000000000000000000000000000000000000000000000000000008152600401612033919061238a565b60405180910390fd5b505b6040517f08c379a000000000000000000000000000000000000000000000000000000000815260040161207090613bcb565b60405180910390fd5b63f23a6e6160e01b7bffffffffffffffffffffffffffffffffffffffffffffffffffffffff1916817bffffffffffffffffffffffffffffffffffffffffffffffffffffffff191614612100576040517f08c379a00000000000000000000000000000000000000000000000000000000081526004016120f790613c5d565b60405180910390fd5b505b505050505050565b6000808273ffffffffffffffffffffffffffffffffffffffff163b119050919050565b6000604051905090565b600080fd5b600080fd5b600073ffffffffffffffffffffffffffffffffffffffff82169050919050565b600061216c82612141565b9050919050565b61217c81612161565b811461218757600080fd5b50565b60008135905061219981612173565b92915050565b6000819050919050565b6121b28161219f565b81146121bd57600080fd5b50565b6000813590506121cf816121a9565b92915050565b600080604083850312156121ec576121eb612137565b5b60006121fa8582860161218a565b925050602061220b858286016121c0565b9150509250929050565b61221e8161219f565b82525050565b60006020820190506122396000830184612215565b92915050565b60007fffffffff0000000000000000000000000000000000000000000000000000000082169050919050565b6122748161223f565b811461227f57600080fd5b50565b6000813590506122918161226b565b92915050565b6000602082840312156122ad576122ac612137565b5b60006122bb84828501612282565b91505092915050565b60008115159050919050565b6122d9816122c4565b82525050565b60006020820190506122f460008301846122d0565b92915050565b600081519050919050565b600082825260208201905092915050565b60005b83811015612334578082015181840152602081019050612319565b60008484015250505050565b6000601f19601f8301169050919050565b600061235c826122fa565b6123668185612305565b9350612376818560208601612316565b61237f81612340565b840191505092915050565b600060208201905081810360008301526123a48184612351565b905092915050565b6000602082840312156123c2576123c1612137565b5b60006123d0848285016121c0565b91505092915050565b600080fd5b7f4e487b7100000000000000000000000000000000000000000000000000000000600052604160045260246000fd5b61241682612340565b810181811067ffffffffffffffff82111715612435576124346123de565b5b80604052505050565b600061244861212d565b9050612454828261240d565b919050565b600067ffffffffffffffff821115612474576124736123de565b5b602082029050602081019050919050565b600080fd5b600061249d61249884612459565b61243e565b905080838252602082019050602084028301858111156124c0576124bf612485565b5b835b818110156124e957806124d588826121c0565b8452602084019350506020810190506124c2565b5050509392505050565b600082601f830112612508576125076123d9565b5b813561251884826020860161248a565b91505092915050565b600067ffffffffffffffff82111561253c5761253b6123de565b5b602082029050602081019050919050565b600080fd5b600067ffffffffffffffff82111561256d5761256c6123de565b5b61257682612340565b9050602081019050919050565b82818337600083830152505050565b60006125a56125a084612552565b61243e565b9050828152602081018484840111156125c1576125c061254d565b5b6125cc848285612583565b509392505050565b600082601f8301126125e9576125e86123d9565b5b81356125f9848260208601612592565b91505092915050565b600061261561261084612521565b61243e565b9050808382526020820190506020840283018581111561263857612637612485565b5b835b8181101561267f57803567ffffffffffffffff81111561265d5761265c6123d9565b5b80860161266a89826125d4565b8552602085019450505060208101905061263a565b5050509392505050565b600082601f83011261269e5761269d6123d9565b5b81356126ae848260208601612602565b91505092915050565b6000806000606084860312156126d0576126cf612137565b5b60006126de8682870161218a565b935050602084013567ffffffffffffffff8111156126ff576126fe61213c565b5b61270b868287016124f3565b925050604084013567ffffffffffffffff81111561272c5761272b61213c565b5b61273886828701612689565b9150509250925092565b6000806040838503121561275957612758612137565b5b6000612767858286016121c0565b9250506020612778858286016121c0565b9150509250929050565b600067ffffffffffffffff82111561279d5761279c6123de565b5b6127a682612340565b9050602081019050919050565b60006127c66127c184612782565b61243e565b9050828152602081018484840111156127e2576127e161254d565b5b6127ed848285612583565b509392505050565b600082601f83011261280a576128096123d9565b5b813561281a8482602086016127b3565b91505092915050565b600080600080600060a0868803121561283f5761283e612137565b5b600061284d8882890161218a565b955050602061285e8882890161218a565b945050604086013567ffffffffffffffff81111561287f5761287e61213c565b5b61288b888289016124f3565b935050606086013567ffffffffffffffff8111156128ac576128ab61213c565b5b6128b8888289016124f3565b925050608086013567ffffffffffffffff8111156128d9576128d861213c565b5b6128e5888289016127f5565b9150509295509295909350565b600067ffffffffffffffff82111561290d5761290c6123de565b5b602082029050602081019050919050565b600061293161292c846128f2565b61243e565b9050808382526020820190506020840283018581111561295457612953612485565b5b835b8181101561297d5780612969888261218a565b845260208401935050602081019050612956565b5050509392505050565b600082601f83011261299c5761299b6123d9565b5b81356129ac84826020860161291e565b91505092915050565b600080604083850312156129cc576129cb612137565b5b600083013567ffffffffffffffff8111156129ea576129e961213c565b5b6129f685828601612987565b925050602083013567ffffffffffffffff811115612a1757612a1661213c565b5b612a23858286016124f3565b9150509250929050565b600081519050919050565b600082825260208201905092915050565b6000819050602082019050919050565b612a628161219f565b82525050565b6000612a748383612a59565b60208301905092915050565b6000602082019050919050565b6000612a9882612a2d565b612aa28185612a38565b9350612aad83612a49565b8060005b83811015612ade578151612ac58882612a68565b9750612ad083612a80565b925050600181019050612ab1565b5085935050505092915050565b60006020820190508181036000830152612b058184612a8d565b905092915050565b612b1681612161565b82525050565b6000602082019050612b316000830184612b0d565b92915050565b612b40816122c4565b8114612b4b57600080fd5b50565b600081359050612b5d81612b37565b92915050565b60008060408385031215612b7a57612b79612137565b5b6000612b888582860161218a565b9250506020612b9985828601612b4e565b9150509250929050565b600080600060608486031215612bbc57612bbb612137565b5b6000612bca8682870161218a565b9350506020612bdb868287016121c0565b925050604084013567ffffffffffffffff811115612bfc57612bfb61213c565b5b612c08868287016125d4565b9150509250925092565b60008060408385031215612c2957612c28612137565b5b6000612c378582860161218a565b9250506020612c488582860161218a565b9150509250929050565b600080600080600060a08688031215612c6e57612c6d612137565b5b6000612c7c8882890161218a565b9550506020612c8d8882890161218a565b9450506040612c9e888289016121c0565b9350506060612caf888289016121c0565b925050608086013567ffffffffffffffff811115612cd057612ccf61213c565b5b612cdc888289016127f5565b9150509295509295909350565b600060208284031215612cff57612cfe612137565b5b6000612d0d8482850161218a565b91505092915050565b7f455243313135353a2061646472657373207a65726f206973206e6f742061207660008201527f616c6964206f776e657200000000000000000000000000000000000000000000602082015250565b6000612d72602a83612305565b9150612d7d82612d16565b604082019050919050565b60006020820190508181036000830152612da181612d65565b9050919050565b7f496e707574206172726179206c656e677468206d69736d617463680000000000600082015250565b6000612dde601b83612305565b9150612de982612da8565b602082019050919050565b60006020820190508181036000830152612e0d81612dd1565b9050919050565b7f4e487b7100000000000000000000000000000000000000000000000000000000600052603260045260246000fd5b7f4e487b7100000000000000000000000000000000000000000000000000000000600052601160045260246000fd5b6000612e7d8261219f565b91507fffffffffffffffffffffffffffffffffffffffffffffffffffffffffffffffff8203612eaf57612eae612e43565b5b600182019050919050565b7f455243313135353a2063616c6c6572206973206e6f7420746f6b656e206f776e60008201527f6572206f7220617070726f766564000000000000000000000000000000000000602082015250565b6000612f16602e83612305565b9150612f2182612eba565b604082019050919050565b60006020820190508181036000830152612f4581612f09565b9050919050565b7f455243313135353a206163636f756e747320616e6420696473206c656e67746860008201527f206d69736d617463680000000000000000000000000000000000000000000000602082015250565b6000612fa8602983612305565b9150612fb382612f4c565b604082019050919050565b60006020820190508181036000830152612fd781612f9b565b9050919050565b7f4f776e61626c653a206e6577206f776e657220697320746865207a65726f206160008201527f6464726573730000000000000000000000000000000000000000000000000000602082015250565b600061303a602683612305565b915061304582612fde565b604082019050919050565b600060208201905081810360008301526130698161302d565b9050919050565b7f4e487b7100000000000000000000000000000000000000000000000000000000600052602260045260246000fd5b600060028204905060018216806130b757607f821691505b6020821081036130ca576130c9613070565b5b50919050565b600081905092915050565b60008190508160005260206000209050919050565b600081546130fd8161309f565b61310781866130d0565b9450600182166000811461312257600181146131375761316a565b60ff198316865281151582028601935061316a565b613140856130db565b60005b8381101561316257815481890152600182019150602081019050613143565b838801955050505b50505092915050565b600061317e826122fa565b61318881856130d0565b9350613198818560208601612316565b80840191505092915050565b60006131b082856130f0565b91506131bc8284613173565b91508190509392505050565b7f4f776e61626c653a2063616c6c6572206973206e6f7420746865206f776e6572600082015250565b60006131fe602083612305565b9150613209826131c8565b602082019050919050565b6000602082019050818103600083015261322d816131f1565b9050919050565b7f5265656e7472616e637947756172643a207265656e7472616e742063616c6c00600082015250565b600061326a601f83612305565b915061327582613234565b602082019050919050565b600060208201905081810360008301526132998161325d565b9050919050565b60006020601f8301049050919050565b600082821b905092915050565b6000600883026132ed7fffffffffffffffffffffffffffffffffffffffffffffffffffffffffffffffff826132b0565b6132f786836132b0565b95508019841693508086168417925050509392505050565b6000819050919050565b600061333461332f61332a8461219f565b61330f565b61219f565b9050919050565b6000819050919050565b61334e83613319565b61336261335a8261333b565b8484546132bd565b825550505050565b600090565b61337761336a565b613382818484613345565b505050565b5b818110156133a65761339b60008261336f565b600181019050613388565b5050565b601f8211156133eb576133bc816130db565b6133c5846132a0565b810160208510156133d4578190505b6133e86133e0856132a0565b830182613387565b50505b505050565b600082821c905092915050565b600061340e600019846008026133f0565b1980831691505092915050565b600061342783836133fd565b9150826002028217905092915050565b613440826122fa565b67ffffffffffffffff811115613459576134586123de565b5b613463825461309f565b61346e8282856133aa565b600060209050601f8311600181146134a1576000841561348f578287015190505b613499858261341b565b865550613501565b601f1984166134af866130db565b60005b828110156134d7578489015182556001820191506020850194506020810190506134b2565b868310156134f457848901516134f0601f8916826133fd565b8355505b6001600288020188555050505b505050505050565b7f455243313135353a206d696e7420746f20746865207a65726f2061646472657360008201527f7300000000000000000000000000000000000000000000000000000000000000602082015250565b6000613565602183612305565b915061357082613509565b604082019050919050565b6000602082019050818103600083015261359481613558565b9050919050565b7f455243313135353a2069647320616e6420616d6f756e7473206c656e6774682060008201527f6d69736d61746368000000000000000000000000000000000000000000000000602082015250565b60006135f7602883612305565b91506136028261359b565b604082019050919050565b60006020820190508181036000830152613626816135ea565b9050919050565b60006136388261219f565b91506136438361219f565b925082820190508082111561365b5761365a612e43565b5b92915050565b6000604082019050818103600083015261367b8185612a8d565b9050818103602083015261368f8184612a8d565b90509392505050565b60006040820190506136ad6000830185612215565b6136ba6020830184612215565b9392505050565b7f455243313135353a207472616e7366657220746f20746865207a65726f20616460008201527f6472657373000000000000000000000000000000000000000000000000000000602082015250565b600061371d602583612305565b9150613728826136c1565b604082019050919050565b6000602082019050818103600083015261374c81613710565b9050919050565b7f455243313135353a20696e73756666696369656e742062616c616e636520666f60008201527f72207472616e7366657200000000000000000000000000000000000000000000602082015250565b60006137af602a83612305565b91506137ba82613753565b604082019050919050565b600060208201905081810360008301526137de816137a2565b9050919050565b7f455243313135353a2073657474696e6720617070726f76616c2073746174757360008201527f20666f722073656c660000000000000000000000000000000000000000000000602082015250565b6000613841602983612305565b915061384c826137e5565b604082019050919050565b6000602082019050818103600083015261387081613834565b9050919050565b7f455243313135353a206275726e2066726f6d20746865207a65726f206164647260008201527f6573730000000000000000000000000000000000000000000000000000000000602082015250565b60006138d3602383612305565b91506138de82613877565b604082019050919050565b60006020820190508181036000830152613902816138c6565b9050919050565b7f455243313135353a206275726e20616d6f756e7420657863656564732062616c60008201527f616e636500000000000000000000000000000000000000000000000000000000602082015250565b6000613965602483612305565b915061397082613909565b604082019050919050565b6000602082019050818103600083015261399481613958565b9050919050565b600081519050919050565b600082825260208201905092915050565b60006139c28261399b565b6139cc81856139a6565b93506139dc818560208601612316565b6139e581612340565b840191505092915050565b600060a082019050613a056000830188612b0d565b613a126020830187612b0d565b8181036040830152613a248186612a8d565b90508181036060830152613a388185612a8d565b90508181036080830152613a4c81846139b7565b90509695505050505050565b600081519050613a678161226b565b92915050565b600060208284031215613a8357613a82612137565b5b6000613a9184828501613a58565b91505092915050565b60008160e01c9050919050565b600060033d1115613ac65760046000803e613ac3600051613a9a565b90505b90565b600060443d10613b5657613adb61212d565b60043d036004823e80513d602482011167ffffffffffffffff82111715613b03575050613b56565b808201805167ffffffffffffffff811115613b215750505050613b56565b80602083010160043d038501811115613b3e575050505050613b56565b613b4d8260200185018661240d565b82955050505050505b90565b7f455243313135353a207472616e7366657220746f206e6f6e2d4552433131353560008201527f526563656976657220696d706c656d656e746572000000000000000000000000602082015250565b6000613bb5603483612305565b9150613bc082613b59565b604082019050919050565b60006020820190508181036000830152613be481613ba8565b9050919050565b7f455243313135353a204552433131353552656365697665722072656a6563746560008201527f6420746f6b656e73000000000000000000000000000000000000000000000000602082015250565b6000613c47602883612305565b9150613c5282613beb565b604082019050919050565b60006020820190508181036000830152613c7681613c3a565b9050919050565b600060a082019050613c926000830188612b0d565b613c9f6020830187612b0d565b613cac6040830186612215565b613cb96060830185612215565b8181036080830152613ccb81846139b7565b9050969550505050505056fea2646970667358221220a620b9ae65e853ebe0a5c17ac7cb4e795792221d3aa79b7a3f83ea9f6add521164736f6c6343000813003368747470733a2f2f676174657761792e70696e6174612e636c6f75642f697066732f",
  "immutableReferences": {},
  "source": "// SPDX-License-Identifier: MIT\r\npragma solidity ^0.8.18;\r\n\r\nimport '../node_modules/@openzeppelin/contracts/token/ERC1155/ERC1155.sol';\r\nimport '../node_modules/@openzeppelin/contracts/token/ERC1155/extensions/ERC1155URIStorage.sol';\r\nimport '../node_modules/@openzeppelin/contracts/access/Ownable.sol';\r\nimport '../node_modules/@openzeppelin/contracts/utils/Counters.sol';\r\nimport '../node_modules/@openzeppelin/contracts/security/ReentrancyGuard.sol';\r\n\r\ncontract WinenwinToken is ERC1155, Ownable, ERC1155URIStorage, ReentrancyGuard {\r\n    using Counters for Counters.Counter;\r\n    Counters.Counter private _tokenId;\r\n    string public constant name = 'winenwin';\r\n    string public constant symbol = 'WIN';\r\n    string private _uri;\r\n\r\n    constructor() ERC1155(_uri) {\r\n        _setBaseURI('https://gateway.pinata.cloud/ipfs/');\r\n    }\r\n\r\n    mapping(uint256 => string) private _tokenURIs;\r\n\r\n    function uri(uint256 tokenId) public view virtual override(ERC1155, ERC1155URIStorage) returns (string memory) {\r\n        return super.uri(tokenId);\r\n    }\r\n\r\n    function mint(address account, uint256 amount, string memory _tokenURI) public onlyOwner nonReentrant {\r\n        _tokenId.increment();\r\n        uint256 tokenId = _tokenId.current();\r\n        _setURI(tokenId, _tokenURI);\r\n        _mint(account, tokenId, amount, '');\r\n    }\r\n\r\n    function addTokenSupply(uint256 tokenId, uint256 amount) public onlyOwner nonReentrant {\r\n        _mint(msg.sender, tokenId, amount, '');\r\n    }\r\n\r\n    function removeTokenSupply(uint256 tokenId, uint256 amount) public onlyOwner nonReentrant {\r\n        _burn(msg.sender, tokenId, amount);\r\n    }\r\n\r\n    function mintBatch(address to, uint256[] memory amounts, string[] memory tokenURIs) public onlyOwner nonReentrant {\r\n        require(amounts.length == tokenURIs.length, 'Input array length mismatch');\r\n\r\n        uint256[] memory ids = new uint256[](amounts.length);\r\n        for (uint256 i = 0; i < amounts.length; i++) {\r\n            _tokenId.increment();\r\n            uint256 tokenId = _tokenId.current();\r\n            _setURI(tokenId, tokenURIs[i]);\r\n            ids[i] = tokenId;\r\n        }\r\n        _mintBatch(to, ids, amounts, '');\r\n    }\r\n\r\n    function getNftAmount() external view returns (uint256) {\r\n        uint256 tokenId = uint256(_tokenId.current());\r\n        return tokenId;\r\n    }\r\n}\r\n",
  "sourcePath": "C:\\Users\\effor\\Git\\windex\\server\\contracts\\WinenwinToken.sol",
  "compiler": {
    "name": "solc",
    "version": "0.8.19+commit.7dd6d404.Emscripten.clang"
  },
  "schemaVersion": "3.4.13",
  "updatedAt": "2023-05-22T06:10:58.722Z",
  "devdoc": {
    "events": {
      "ApprovalForAll(address,address,bool)": {
        "details": "Emitted when `account` grants or revokes permission to `operator` to transfer their tokens, according to `approved`."
      },
      "TransferBatch(address,address,address,uint256[],uint256[])": {
        "details": "Equivalent to multiple {TransferSingle} events, where `operator`, `from` and `to` are the same for all transfers."
      },
      "TransferSingle(address,address,address,uint256,uint256)": {
        "details": "Emitted when `value` tokens of token type `id` are transferred from `from` to `to` by `operator`."
      },
      "URI(string,uint256)": {
        "details": "Emitted when the URI for token type `id` changes to `value`, if it is a non-programmatic URI. If an {URI} event was emitted for `id`, the standard https://eips.ethereum.org/EIPS/eip-1155#metadata-extensions[guarantees] that `value` will equal the value returned by {IERC1155MetadataURI-uri}."
      }
    },
    "kind": "dev",
    "methods": {
      "balanceOf(address,uint256)": {
        "details": "See {IERC1155-balanceOf}. Requirements: - `account` cannot be the zero address."
      },
      "balanceOfBatch(address[],uint256[])": {
        "details": "See {IERC1155-balanceOfBatch}. Requirements: - `accounts` and `ids` must have the same length."
      },
      "isApprovedForAll(address,address)": {
        "details": "See {IERC1155-isApprovedForAll}."
      },
      "owner()": {
        "details": "Returns the address of the current owner."
      },
      "renounceOwnership()": {
        "details": "Leaves the contract without owner. It will not be possible to call `onlyOwner` functions anymore. Can only be called by the current owner. NOTE: Renouncing ownership will leave the contract without an owner, thereby removing any functionality that is only available to the owner."
      },
      "safeBatchTransferFrom(address,address,uint256[],uint256[],bytes)": {
        "details": "See {IERC1155-safeBatchTransferFrom}."
      },
      "safeTransferFrom(address,address,uint256,uint256,bytes)": {
        "details": "See {IERC1155-safeTransferFrom}."
      },
      "setApprovalForAll(address,bool)": {
        "details": "See {IERC1155-setApprovalForAll}."
      },
      "supportsInterface(bytes4)": {
        "details": "See {IERC165-supportsInterface}."
      },
      "transferOwnership(address)": {
        "details": "Transfers ownership of the contract to a new account (`newOwner`). Can only be called by the current owner."
      }
    },
    "version": 1
  },
  "userdoc": {
    "kind": "user",
    "methods": {},
    "version": 1
  }
}